:020000040800F2
:1000000010190020210200089B2900081F20000869
:10001000992900088B0500087D35000800000000C4
:10002000000000000000000000000000890100083E
:100030008D05000800000000CD0100081530000803
:100040003B0200083B0200083B0200083B0200089C
:100050003B0200083B0200083B0200083B0200088C
:100060003B0200083B0200083B0200083B0200087C
:100070003B0200083B0200083B0200083B0200086C
:100080003B0200083B0200083B0200083B0200085C
:100090003B0200083B0200083B0200083B0200084C
:1000A0003B020008A13000083B0200083B020008A8
:1000B0003B0200083B0200083B0200083B0200082C
:1000C0003B0200083B0200083B0200083B0200081C
:1000D0003B0200083B020008713500083B020008A3
:1000E0003B0200083B0200083B02000800F002F857
:1000F00000F03AF80AA090E8000C82448344AAF188
:100100000107DA4501D100F02FF8AFF2090EBAE885
:100110000F0013F0010F18BFFB1A43F0010318473B
:1001200080860000A0860000103A24BF78C878C1FD
:10013000FAD8520724BF30C830C144BF04680C60ED
:10014000704700000023002400250026103A28BF35
:1001500078C1FBD8520728BF30C148BF0B60704739
:100160001FB51FBD10B510BD00F0DAF91146FFF73D
:10017000F7FF04F0BDFD00F0F8F903B4FFF7F2FF5C
:1001800003BC00F0FBF90000224B19680868B0E8D6
:10019000F00F80F30988BFF36F8F4FF0000080F3FA
:1001A00011884EF00D0E70470000000006480068F0
:1001B000006880F3088862B661B6BFF34F8FBFF363
:1001C0006F8F00DF00BF00BF08ED00E0EFF3098094
:1001D000BFF36F8F0F4B1A6820E9F00F106008B55E
:1001E0004FF0500080F31188BFF34F8FBFF36F8F34
:1001F00006F018F94FF0000080F31188BDE80840C0
:1002000019680868B0E8F00F80F30988BFF36F8FB2
:10021000704700BF84000020EFF3058070470000A6
:100220000948804709480047FEE7FEE7FEE7FEE78A
:10023000FEE7FEE7FEE7FEE7FEE7FEE704480549C6
:10024000054A064B704700009F300008ED0000088B
:100250001013002010190020101500201015002088
:1002600010B54C1084EA530404D54042C1F100019A
:1002700038BF491E1B4204D55242C3F1000338BFA8
:100280005B1E00F0A1F814F0804F04D04042C1F191
:10029000000138BF491E14F0004F04D05242C3F190
:1002A000000338BF5B1E10BD40EA010310B59B0779
:1002B0000FD1042A0DD310C808C9121F9C42F8D0D0
:1002C00020BA19BA884201D9012010BD4FF0FF3081
:1002D00010BD1AB1D30703D0521C07E0002010BD97
:1002E00010F8013B11F8014B1B1B07D110F8013B23
:1002F00011F8014B1B1B01D1921EF1D1184610BD04
:1003000010B5203AC0F00B80B1E81850203AA0E8B0
:100310001850B1E81850A0E81850BFF4F5AF5FEAE4
:10032000027C24BFB1E81850A0E8185044BF18C997
:1003300018C0BDE810405FEA827C24BF51F8043B3E
:1003400040F8043B08BF7047D20728BF31F8023B92
:1003500048BF11F8012B28BF20F8023B48BF00F826
:10036000012B704702F0FF0343EA032242EA0242F4
:1003700000F0AEB84FF0000200B513469446964622
:10038000203922BFA0E80C50A0E80C50B1F12001A8
:10039000BFF4F7AF090728BFA0E80C5048BF0CC056
:1003A0005DF804EB890028BF40F8042B08BF7047B4
:1003B00048BF20F8022B11F0804F18BF00F8012B26
:1003C000704770477047704753EA020C00F069802D
:1003D0002DE9F04B4FF00006002B1FBFB3FA83F559
:1003E00003FA05F424FA05F65E4012BF1643B2FA8A
:1003F00082F502FA05F4C5F120051EBF22FA05FCBC
:1004000044EA0C04203556EA044C4FEA144418BF61
:10041000641C4FF000084FF00009904271EB030C90
:1004200039D3002919BFB1FA81F701FA07F6B0FAFA
:1004300080F700FA07F6C7F120071EBF20FA07FC75
:1004400046EA0C062037B6FBF4FCA7EB0507103F85
:1004500007F01F0BCBF120060CFA0BFB2CFA06F66B
:1004600044BFB3460026202FA4BF5E464FF0000BCA
:100470005BEA060C08BF4FF0010B19EB0B09ABFB55
:10048000027C48EB0608C01B06FB02CC0BFB03CC2E
:1004900071EB0C01C1E70B46024641464846BDE8F8
:1004A000F08B13B54FF000004FF00001AFF3008068
:1004B000BDE81C40704710B500F02AF8006810BD78
:1004C00010B5044600F024F8046010BD4FF000029F
:1004D0000429C0F0128010F0030C3FF44DAFCCF1B2
:1004E000040CBCF1020F18BF00F8012BA8BF20F8C4
:1004F000022BA1EB0C01FFF73FBF5FEAC17C24BFD9
:1005000000F8012B00F8012B48BF00F8012B7047C1
:1005100000487047B012002000487047B012002019
:100520007546FFF7F9FFAE4605006946534620F0D1
:100530000700854618B020B5FFF780FEBDE82040D3
:100540004FF000064FF000074FF000084FF0000B8F
:1005500021F00701AC46ACE8C009ACE8C009ACE842
:10056000C009ACE8C0098D46704710B50446AFF32A
:1005700000802046BDE81040FFF7FFBD014918206C
:10058000ABBEFEE7260002007047FEE7704772B67A
:10059000FEE710B590F821100022022905D00421B1
:1005A000816380F82020012010BD01680B6823F0D2
:1005B0000E030B6001680B6823F001030B6090F8D9
:1005C0004030C46B012101FA03F3636080F821100D
:1005D00080F82020104610BD10B590F8211000249E
:1005E000022903D00421816301243DE001680A68E7
:1005F00022F00E020A6001680A6822F001020A6015
:100600001A4A0168914201D1012121E0174A1432AE
:10061000914201D110211BE0144A2832914201D1AC
:10062000891515E0114A3C32914201D189140FE03D
:100630000E4A5032914202D14FF4803108E00B4A09
:100640006432914202D14FF4801101E04FF0807189
:10065000064A083A5160012180F82110002180F8F3
:100660002010416B01B18847204610BD08000240B0
:1006700070B5044600F004F90546601C02D0044839
:100680000078044400F0FCF8401BA042FAD370BD8F
:10069000740000202DE9F84FDFF8B8910024A9F18B
:1006A000040B23460F2709F1040AABF1040EC9E03D
:1006B0000125A5402A40AA427DD1674ED1F804C049
:1006C000ACEB0608B44532D014DCBCF1030F3AD0D1
:1006D00009DCBCF1000F2AD0BCF1010F1CD0BCF129
:1006E000020F31D11DE0BCF1110F17D0BCF1120F78
:1006F0002AD119E0B8F5881F19D006DCB8F5803F7B
:1007000015D0B8F5801F1FD111E0B8F5001F0ED02D
:10071000B8F5041F18D10AE0CB6815E0CB681B1DA3
:1007200012E0CB6808330FE0CB680C330CE08B6829
:100730002BB1012B4FF0080303D0456104E00423E3
:1007400002E0056100E00023FF2A01D8064601E02F
:1007500000F104064FEA840501D9A5F12005D6F879
:10076000008007FA05FC28EA0C0803FA05F548EAB8
:100770000508C6F800804D68ED0062D5374DAE69BA
:1007800046F00106AE61AD6924F0030605F00105EF
:100790000095334D06EB050CDCF80850A607360F24
:1007A00007FA06F825EA0805DFF8B880404503D1C6
:1007B0004FF0000817E044E0DFF8AC80404502D17C
:1007C0004FF001080FE0DFF8A480404502D14FF060
:1007D000020808E0DFF89880404502D14FF0030896
:1007E00001E04FF0040808FA06F848EA0508CCF8DA
:1007F00008804D68D9F80060ED024D4601D51643DA
:1008000000E096432E604D68DAF80060AD02554670
:1008100001D5164300E096432E604D68DBF800607A
:10082000AD035D4601D5164300E096432E604D684A
:10083000DEF80060ED03754601D5164300E09643EF
:100840002E60641C0D682A46E5407FF431AFBDE898
:10085000F88F000008040140000011100010024051
:100860000000014000080140000C01400010014060
:10087000001401400AB1016170470904FBE7000060
:1008800001488068704700007400002070B50400C3
:1008900025D094F83D00002520B984F83C5020462E
:1008A00000F07EFA242084F83D002068016821F0E1
:1008B000010101602068016841F400410160206885
:1008C000016821F40041016000F014FC4D4A6168A8
:1008D000914201D84C4900E04C49884201D20120A4
:1008E00070BD4B492368B0FBF1F15E6826F03F060E
:1008F0000E435E606368934206D94FF49673594382
:100900004FF47A73B1FBF3F12368491C1E6A26F099
:100910003F06314319626168914210D84900401E78
:10092000B0FBF1F2521CC2F30B02042A01D20420E4
:1009300022E0B0FBF1F0401CC0F30B001CE0A26809
:10094000F2B301EBC10303EB0116431EB3FBF6F355
:100950005B1C43F480431B0549D092B301EBC102F9
:1009600002EB0111401EB0FBF1F0401CC0F30B0084
:1009700040F4804040F400402168CA694CF6FF739F
:100980009A431043C861D4E9071001432068026804
:1009900022F0C00211430160D4E903010143206841
:1009A000826848F2FF339A4311438160D4E905011C
:1009B00008432168CA6822F0FF021043C86001E0C2
:1009C0000EE016E02068016841F001010160256435
:1009D000202084F83D00256384F83E50002070BD3F
:1009E00001EB4106431EB3FBF6F35B1CB3E70120AA
:1009F000C2E701EB4101401EB0FBF1F0401CC0F327
:100A00000B00B7E7A086010080841E0000093D00AE
:100A100040420F002DE9FF4F83B00025DDE910793A
:100A20009A4693460446DDF848800095FFF728FF74
:100A3000064694F83D0020287CD1192301228849DC
:100A40002046009601F002FC0028F5D194F83C0005
:100A500001286FD0012084F83C0020680168C90794
:100A600003D1016841F0010101602068016821F4AF
:100A700000610160222084F83D00402084F83E009F
:100A800025646762A4F82A90608D20857548E0622D
:100A9000CDE9008653465A462046049901F0D8FA1B
:100AA00000287CD1208DDFF8C091202768B1012873
:100AB00014D00228206801681ED041F480610160D2
:100AC0002068416980690090BCE0206841698169C3
:100AD0000091016841F400710160B3E02068016891
:100AE00021F48061016072B62068416981690091DA
:100AF000016841F400710AE041F40061016072B6DE
:100B00002068416981690091016821F48061016078
:100B100062B697E0032865D801280CD00228434626
:100B20004FF000024946204600960BD001F08EFBA4
:100B3000A8BB0CE091E032464146204601F02CFC77
:100B400068BB72E001F082FB48BB72B633E02068FC
:100B5000016821F48061016072B620680069616AF1
:100B60000870606A401C6062208D401E2085608D88
:100B7000401E60853D4846F2A8110068B0FBF1F0C8
:100B8000C0EBC00000EB80000090401E009007D03A
:100B900020684069C04340070DD50098F5E727E07D
:100BA00044F8305F6773A573206940F0200020612E
:100BB00062B625731CE02068016841F40071016091
:100BC00020680069616A0870606A401C6062218D5B
:100BD000491E2185618D491E618562B621680969BA
:100BE000017026E032464146204601F0D5FB18B19F
:100BF000012007B0BDE8F08F20680069616A0870C5
:100C0000606A401C6062208D401E81B22185608D2B
:100C1000401E608520684269D243520712D40329DE
:100C200003D1016821F48061016020680069616A74
:100C30000870606A401C6062208D401E2085608DB7
:100C4000401E6085208D00287FF464AF84F83D70DD
:100C500084F83E5084F83C50CBE70220C9E70000FE
:100C6000020010000000FFFF0400010080000020CF
:100C70002DE9FF4F83B09A46DDE91197934604466C
:100C8000DDF84080FFF7FCFD054694F83D00202884
:100C90007FD11923012240492046009501F0D6FA60
:100CA000002876D194F83C00012872D0012084F805
:100CB0003C0020680168C90703D1016841F00101C7
:100CC00001602068016821F400610160212084F83E
:100CD0003D00402084F83E0000262664C4F82480AD
:100CE000A4F82A90608D20852C48E062CDE900753B
:100CF00053465A462046049901F028FA70B930E06C
:100D00002A463946204601F07FFB58B1206C042862
:100D100004D12068016841F400710160012007B02E
:100D2000BDE8F08F606A216800780861606A401C45
:100D30006062218D491E89B22185628D521E6285B5
:100D400022685369DB435B070BD469B100781061FB
:100D5000606A401C6062208D401E2085608D401EB0
:100D60006085208D0028CBD12A463946204601F0E7
:100D700041FA0028CAD154F83D0B016841F40071D2
:100D80000160202004F81E09E67766770020C6E798
:100D9000FFE70220C3E70000020010000000FFFF91
:100DA00010B586B000210091019102910391006875
:100DB000104988421BD1104CA06940F00800A06186
:100DC000A069694600F0080004904FF4406000906C
:100DD00012200190032003900848FFF75BFCE069B4
:100DE00040F48000E061E06900F48000049006B007
:100DF00010BD00000058004000100240000C0140EF
:100E000002488168027811448160704774000020B4
:100E1000074810B5016841F010010160032000F09F
:100E2000A1F80F2000F006F800F04AF8002010BDED
:100E30000020024030B505461C4887B0816941F466
:100E400000618161806906A900F40060009001A83A
:100E500000F030F900F05EF91549164AB0FBF1F1E7
:100E60001548491E0260416040F2E7320021C0E9A6
:100E700003218160816100F049FB040012D10E481A
:100E800000F084FB04000DD1192000F03DF8102D76
:100E900007D200222946192000F044F807480560CF
:100EA00000E0012407B0204630BD000000100240E1
:100EB00040420F00002C014068050020780000200F
:100EC0000F4808B5816941F001018161816901F034
:100ED00001010091C16941F08051C161C0690022E6
:100EE00000F0805000900F21901E00F01BF8054884
:100EF000416821F0E06141F00071416008BD0000EF
:100F00000010024000000140002809DB00F01F0231
:100F1000012191404009800000F1E020C0F800115B
:100F200070470000F0B40E4B1B680C46C3F302235D
:100F3000C3F10705042D00D90425191D072901D285
:100F4000002300E0DB1E012606FA05F1491E2140C0
:100F500099409E40761E16403143F0BC02F07CBBA7
:100F60000CED00E0064900F0070208684FF6FF03A9
:100F7000184040EA0220034A10430860704700000E
:100F80000CED00E00000FA052DE9F0470F460500E2
:100F900061D0434E306800F00700B84209D2306893
:100FA00020F0070038433060306800F00700B84296
:100FB00051D128683B4C810712D5400703D56068A2
:100FC00040F4E06060602878000703D5606840F472
:100FD000605060606068A96820F0F00008436060BD
:100FE0002878C00728D06868012810D02168022816
:100FF00010D0890700292EDA616821F0030101432E
:101000006160FFF73DFC804641F288390DE02168C0
:101010008903EFE78901EDE7FFF732FCA0EB080158
:10102000494502D90320BDE8F0876068696800F08F
:101030000C00B0EB810FEFD1306800F00700B84230
:101040000BD9306820F0070038433060306800F07A
:101050000700B84201D00120E5E72878400705D510
:101060006068E96820F4E060084360602878000761
:1010700006D56068296920F4605040EAC1006060CC
:1010800000F058F86168084AC1F30311515CC84088
:101090000649086006480068FFF7CCFE0020C2E75A
:1010A00000200240001002406C86000880000020F2
:1010B000780000200F2202600C4A536803F00303FB
:1010C0004360536803F0F0038360536803F4E06304
:1010D000C36052684FF4E06303EAD202026104483D
:1010E000006800F007000860704700000010024030
:1010F000002002400448054900684968044AC1F3D9
:101100000221515CC840704780000020001002405E
:101110007C8600080448054900684968044AC1F310
:10112000C221515CC840704780000020001002407E
:101130007C8600080E4A51680E4801F00C03042B0F
:1011400011D0082B0FD10C48C1F38343C903C05CF5
:101150000AD55168084AC1F34041921E515C054AC4
:101160005043B0FBF1F0704704494843704700001A
:101170000010024000127A005C86000800093D0061
:101180002DE9F84F040070D02078C04DC00749D039
:101190006868C0F38100012807D06868C0F3810047
:1011A000022809D16868C00306D52868800339D5AC
:1011B00060680028E7D035E06068B0F5803F0BD06C
:1011C00010B1B0F5A02F11D0286820F4803028602D
:1011D000286820F4802002E0286840F480302860ED
:1011E000606890B1FFF74CFB06460AE0286840F4BF
:1011F00080202860F0E700BFFFF742FB801B6428D7
:1012000073D828688003F7D50CE0FFF739FB064652
:1012100005E000BFFFF734FB801B6428F0D8286886
:101220008003F7D420789A4E80074FF001094FF0E1
:10123000000839D5686810F00C0F07D06868C0F353
:101240008100022809D16868C00306D42868800795
:1012500014D52069012808D110E02069B0B1C6F882
:101260000090FFF70DFB074605E00AE1FFF708FBDA
:10127000C01B0228C4D828688007F7D52868616990
:1012800020F0F80040EAC10028600DE0C6F80080B8
:10129000FFF7F6FA074604E0FFF7F2FAC01B022850
:1012A00023D828688007F7D4207800072CD5794800
:1012B000A169D9B1C0F80090FFF7E2FA074604E04F
:1012C000FFF7DEFAC01B02280FD8686A8007F7D53F
:1012D00071484FF4FA510068B0FBF1F0009000BF84
:1012E0000098411E0091FAD20EE080E0C0F8008024
:1012F000FFF7C6FA074604E0FFF7C2FAC01B022850
:1013000075D8686A8007F7D42078400760D5E86907
:101310000027C00008D4E86940F08050E861E8691F
:10132000012700F0805000905C480168C90513D483
:101330000168834641F480710160FFF7A1FA82469B
:1013400006E000BFFFF79CFAA0EB0A0064284ED825
:10135000DBF80000C005F5D5E06801280AD008B127
:10136000052813D0286A20F001002862286A20F09E
:10137000040002E0286A40F001002862E06841F2BF
:10138000883B98B1FFF77CFA82460BE0286A40F070
:1013900004002862EEE700BFFFF772FAA0EB0A0133
:1013A00059455AD8286A8007F6D50CE0FFF768FA45
:1013B000824605E0FFF764FAA0EB0A0159454CD8D4
:1013C000286A8007F6D41FB1E86920F08050E861F0
:1013D000E06988B36968C1F38101022944D0022819
:1013E000C6F8608004D0FFF74BFA044638E034E0DA
:1013F000FFF746FA074604E0FFF742FAC01B02284F
:101400002BD828688001F7D4206AB0F5803F05D139
:101410006868A16820F4003008436860D4E90801D6
:101420000843696821F4741108436860C6F8609045
:10143000FFF726FA044606E025E000BFFFF720FA92
:10144000001B022809D828688001F7D51BE000BFDF
:10145000FFF716FA001B022802D90320BDE8F88F17
:1014600028688001F4D40EE00128F7D06868226A69
:1014700000F48031914204D1616A00F47010884216
:1014800001D00120EAE70020E8E700000010024058
:101490000000424280044242800000200070004070
:1014A0007047704770B590F83C20012A26D001247F
:1014B00080F83C40022280F83D2003685A689D680D
:1014C00022F070060A6832435A600D4B02689A4255
:1014D00008D0B2F1804F05D00A4B9A4202D00A4B95
:1014E0009A4204D1496825F080031943916080F83D
:1014F0003D40002180F83C10084670BD022070BDC0
:10150000002C0140000400400008004010B5040019
:1015100003D094F83D0010B107E0012010BD002079
:1015200084F83C00204600F01FF8022084F83D00BB
:10153000211D206801F0BAFD012084F8460084F8DE
:101540003E0084F83F0084F8400084F8410084F8AD
:10155000420084F8430084F8440084F8450084F88D
:101560003D00002010BD000008B50068B0F1804FBC
:1015700008D10548C16941F00101C161C06900F0AD
:101580000100009008BD00000010024090F83D10DE
:10159000012901D001207047022180F83D10016827
:1015A000CA6842F00102CA6000680B49884208D04C
:1015B000B0F1804F05D00949884202D008498842DD
:1015C00004D1816801F00701062903D0016841F0C8
:1015D0000101016000207047002C01400004004020
:1015E0000008004070B5044690F83C000025012832
:1015F00017D0012684F83C60022084F83D00206862
:10160000826822F0770222F47F42826008685028C4
:1016100038D00DDC20284FD005DC90B3102811D134
:101620004AE0022070BD302846D040280AD13BE075
:1016300060282FD070280DD0B0F5805F03D0B0F5B2
:10164000005F12D0012584F83D60002084F83C0042
:10165000284670BDCB68D1E90121206801F06FFDFB
:101660002068816841F0770109E0CB68D1E9012168
:10167000206801F064FD2068816841F48041816048
:10168000E1E719E0CA684968206801F00DFE5021C1
:10169000206806E0CA684968206801F016FE6021EB
:1016A000206801F056FDCEE7CA684968206801F05D
:1016B000FBFD40212068F4E7226801461046F0E770
:1016C0002DE9F0410D46040003D094F83D0018B117
:1016D00008E00120BDE8F081002084F83C002046AD
:1016E00000F040F8022084F83D002068816844F250
:1016F000070291438160211D206801F0D7FC226818
:1017000090689169166A2B68AF69034340F2033011
:10171000814341EA0721A868EF6908434FF6FC417D
:101720008843E96840EA0720014328692F6A0001DD
:1017300040EA0730084369686D6926F0220646EAE8
:101740000515294393602268906154F8460B0162A5
:10175000012004F81F09E0752076E0762077A07557
:101760000020B7E700B585B00021009101910291FA
:1017700003911A4B02681A48C0219A4213D1C269D8
:1017800042F00202C261C26902F00202049282695E
:1017900042F0040282618069009100F0040004902C
:1017A0006946104815E0104B9A4214D1C26942F0C4
:1017B0000402C261C26902F004020492826942F02A
:1017C000080282618069009100F008000490694677
:1017D0000648FEF75FFF05B000BD000000040040B2
:1017E000001002400008014000080040000C0140C9
:1017F00070B590F83E60044690F83F5090F8423043
:1018000090F84320022021B104290ED0012E1BD1D3
:1018100014E0012E18D1012B16D184F83E0084F873
:10182000420001220021206820E0012D0CD1012A74
:101830000AD184F83F0084F8430014E0012D03D15D
:10184000012B01D1012A01D0012070BD84F83E0096
:1018500084F83F0084F8420084F84300012200210C
:10186000206801F05FFC01220421206801F05AFC8D
:101870002068016841F001010160002070BD7047DF
:101880002DE9F04104460068C66805694FF000077D
:10189000A90713D5B10711D5F91E016101202077E1
:1018A000206880698007204602D0FFF7E8FF04E047
:1018B00000F0ACF8204600F03EF92777680716D50F
:1018C000700714D521686FF00400086102202077AA
:1018D0002068806910F4407F204602D0FFF7CFFFD8
:1018E00004E000F093F8204600F025F92777280758
:1018F00015D5300713D521686FF008000861042062
:1019000020772068C0698007204602D0FFF7B7FF24
:1019100004E000F07BF8204600F00DF92777E80698
:1019200016D5F00614D521686FF010000861082064
:1019300020772068C06910F4407F204602D0FFF76E
:101940009EFF04E000F062F8204600F0F4F82777EC
:10195000E80708D0F00706D021686FF001000861A1
:10196000204600F037F9280608D5300606D521684C
:101970006FF0800008612046FFF792FD680608D5E9
:10198000700606D521686FF040000861204600F01F
:101990002BF9A8060AD5B00608D521686FF02000FB
:1019A00008612046BDE8F041FFF77BBDBDE8F0814E
:1019B00000B585B00021009101910291039100686A
:1019C000B0F1804F19D10E48816941F00401816165
:1019D0008069694600F00400049003200090022012
:1019E000019003900748FEF755FE0021064800F0DD
:1019F000A3F80421044800F09FF805B000BD0000E2
:101A0000001002400008014048040020704770B5F3
:101A1000044690F83C0000260D4601280FD0012016
:101A200084F83C006AB1042A1DD0082A2FD00C2A61
:101A30003FD00126002084F83C00304670BD0220D3
:101A400070BD206801F08EFB2068816941F00801BB
:101A500081612068816921F00401816120688169C8
:101A60002A69114311E0206801F0A4FB2068816914
:101A700041F4006181612068816921F480618161A4
:101A8000206881692A6941EA02218161D2E72068E0
:101A900001F0BCFB2068C16941F00801C161206808
:101AA000C16921F00401C1612068C1692A6911433B
:101AB00011E0206801F0D6FB2068C16941F40061A3
:101AC000C1612068C16921F48061C1612068C16978
:101AD0002A6941EA0221C161ACE710B5040003D0D4
:101AE00094F83D0010B107E0012010BD002084F8FB
:101AF0003C00204600F01EF8022084F83D00211D25
:101B0000206801F0D3FA012084F8460084F83E00F2
:101B100084F83F0084F8400084F8410084F84200D3
:101B200084F8430084F8440084F8450084F83D00BC
:101B3000002010BD7047704710B50446022249B11D
:101B400004290ED0082913D094F84100012816D09A
:101B5000012010BD94F83E000128F9D184F83E2000
:101B60000FE094F83F000128F2D184F83F2008E00C
:101B700094F840000128EBD184F8402001E084F87B
:101B800041200122206801F0CDFA0F4920688842E7
:101B900003D1426C42F4004242642068884208D07B
:101BA000B0F1804F05D00949884202D008498842E7
:101BB00004D1816801F00701062903D0016841F0D2
:101BC00001010160002010BD002C01400004004014
:101BD0000008004000680349884201D1FFF710B9AE
:101BE00070470000002C01407047704770470000AC
:101BF000F8B5016804460868CA684B6910F00F0F11
:101C00004FF0000559D003F0010602F490773743F6
:101C100065D0C10705D0D10503D5616C41F0010144
:101C20006164410705D5D90703D0616C41F0020119
:101C30006164810705D5D90703D0616C41F00401C7
:101C40006164010707D502F02001314303D0616CC4
:101C500041F008016164616C00293AD0800604D526
:101C6000900602D5204601F071FB20684069616C46
:101C7000C0F38010090700D460B3204601F03FFB99
:101C800020684069400621D52068143050E8001FC4
:101C900021F0400140E80012002AF5D1E06BA8B124
:101CA0006D494163E06BFEF797FC002811D0E06BB3
:101CB000416B01B0BDE8F040084783060FD593069D
:101CC0000DD52046BDE8F84001F040BB2046FFF7A7
:101CD0008DFFF8BD2046FFF789FF6564F8BD266BD0
:101CE0002023012E7CD1C6067AD5D60678D5086881
:101CF0004868009048694FF00206400640D5E16B05
:101D0000086840680004000CE8D0A28D8242E5D942
:101D1000E085886920282DD020680C3050E8001F0D
:101D200021F4807140E80012002AF5D120681430B7
:101D300050E8001F21F0010140E80012002AF5D10F
:101D40002068143050E8001F21F0400140E80012E4
:101D5000002AF5D184F84230256320680C3050E821
:101D6000001F21F0100140E80012002AF5D1E06BBD
:101D7000FEF70FFC6663A08DE18D401A81B22AE068
:101D8000A08DE18D401A81B2E08D0028A6D00029F7
:101D9000A4D022680C3252E8000F20F4907042E880
:101DA0000007002FF5D12068143050E8002F22F0F2
:101DB000010240E80027002FF5D184F84230256366
:101DC00020680C3050E8002F22F0100240E8002379
:101DD000002BF5D166632046FFF707FFF8BDFFE74C
:101DE00005062BD5150629D594F841002128F5D1F3
:101DF000A068B0F5805F01D12069B0B1206A411CB4
:101E00002162216800784860E08C401E0004000CCC
:101E1000E084E3D12068C16821F08001C1602068BE
:101E2000C16841F04001C160D8E7206A0088C0F372
:101E300008004860206A801C2062E5E74006CDD596
:101E40005006CBD5CA68204622F04002CA6084F80A
:101E5000413000F0E3F8C1E7EF32000870B504004C
:101E600004D094F84100002510B106E0012070BDB7
:101E700084F84050204600F023F8242084F84100E4
:101E80002068C16821F40051C160204601F0C0FA09
:101E90002068016921F4904101612068416921F0C5
:101EA0002A0141612068C16841F40051C160656444
:101EB000202084F8410084F842006563002070BD52
:101EC00030B585B000240094019402940394006816
:101ED000184988422BD11848C16941F40031C161C9
:101EE000C16901F400310491816941F0040181610B
:101EF0008069124D00F0040004900420009002203C
:101F000001900320039069462846FEF7C3FB082092
:101F1000CDE90004694628460294FEF7BBFB002287
:101F200005212620FEF7FEFF2620FEF7EDFF05B077
:101F300030BD000000440040001002400008014095
:101F400090F84230202B01D00220704721B11AB105
:101F50000023036301F0B8BA01207047054910B5AA
:101F6000884203D10448807801F00AFBBDE81040A4
:101F700001F046B820050020000000202DE9F843BC
:101F8000044690F84100984616460D46202802D097
:101F90000220BDE8F88385B17EB100206064212075
:101FA00084F84100FEF76CFCA6848146E684A068B4
:101FB0002027B0F5805F02D003E00120E9E7206927
:101FC00010B12E4600250EE000260CE080212046B0
:101FD00001F095FAA8B9C6B116F8010B216848605E
:101FE000E08C401EE084E08C4B464FF00002CDF8C0
:101FF00000800028EAD14FF04001204601F07FFA2E
:1020000040B184F841700320C3E735F8020BC0F3F8
:102010000800E3E784F841700020BAE77047FEE764
:1020200001684A69D24352050FD46FF480624A6155
:10203000002140F8301F202242738173026942F070
:102040000402026101730120704700207047000004
:102050002DE9F84F0446006889460B9D01689846B3
:10206000174641F4806101602068016841F4807185
:10207000016000954FF0011B0022594620460A9B43
:1020800000F0E4F84FF4007A40B120680068C00521
:1020900001D5C4F840A00320BDE8F88F216809F0FD
:1020A000FE0008612B46284920460A9A00F016F9DE
:1020B000F0BB20684169806900902A4620460A9951
:1020C00000F0A2F940B1206C04283AD120680168E0
:1020D00041F40071016034E0FEB2B8F1010F09D0A3
:1020E0002168380A08612A4620460A9900F08CF9CE
:1020F0000028E8D1206806612A4620460A9900F0A7
:1021000083F90028DFD12068016841F48071016003
:1021100000950022594620460A9B00F097F80028B7
:10212000B3D1216809F0FF0040F00100086100E030
:1021300007E02B46044920460A9A00F0CFF8002811
:10214000AAD00120A8E70000020001002DE9F84311
:10215000044600680D46DDE9089701689846164672
:1021600041F4807101604B4600224FF0011120467E
:10217000009700F06BF848B120680068C00502D5F0
:102180004FF4007020640320BDE8F883216805F057
:10219000FE0008613B464A461549204600F09EF87D
:1021A00088B920684169806900903A4649462046CE
:1021B00000F02AF948B1206C042804D12068016895
:1021C00041F4007101600120DEE7F5B2B8F1010FC2
:1021D00009D02168300A08613A464946204600F095
:1021E00013F90028E7D1206805610020CCE7000042
:1021F0000200010070B516460D4604461EE020465A
:10220000FFF70EFF08B1012070BD681C16D0FEF765
:1022100037FB801BA84200D885B920684069C043BD
:1022200040070BD5002044F8300F20216173A073C4
:10223000216941F0200121612073E4E720684069B1
:10224000C0434007DBD4002070BD00002DE9F047FB
:10225000984617460D460446C1F30746DDF8209020
:102260002AE000BFB8F1FF3F26D0FEF709FBA0EB44
:102270000901414502D8B8F1000F1DD12068012E97
:1022800016D0806925EA00000004000C12D000205E
:10229000B84211D1002044F8300F20216173A0739F
:1022A000216941F02001216120730120BDE8F08700
:1022B0004069E7E70120EBE72068012E0AD080693A
:1022C00025EA00000004000C06D00020B842C9D066
:1022D0000020EBE74069F3E70120F7E72DE9F0473D
:1022E000984616460D4604464FF000094FF0200A66
:1022F000C1F3074723E020684069C043400515D477
:102300002068016841F40071016021686FF4806009
:102310004861C4F8309084F83DA084F83E90216C68
:1023200041F00401216484F83C9021E0701C06D047
:10233000FEF7A6FAA0EB0800B04203D816B1012FB1
:102340001FD021E02068012F15D0806925EA000008
:102350000004000C18D000BF44F8309F84F80DA092
:1023600084F80E90216941F02001216184F80C90DD
:102370000120BDE8F087406925EA00000004000C58
:10238000EAD12068406901E02068806925EA000000
:102390000004000CAFD1ECE72DE9F0410025904698
:1023A0000E460446202728E04069C043C0060CD4EE
:1023B00054F8301B6FF01000486144F810596777EB
:1023C000A577206A2062257714E0FEF759FAA0EB82
:1023D0000800B04200D886B920684069C043400672
:1023E0000BD544F8305F6773A573206940F0200077
:1023F000206125730120BDE8F08120684169C9434F
:102400004906D1D40020F6E770B516460D460446BD
:102410001EE02046FFF704FE08B1012070BD681CD5
:1024200016D0FEF72DFA801BA84200D885B9206887
:102430004069C04300060BD5002044F8300F20212E
:102440006173A073216941F0200121612073E4E7E9
:1024500020684069C0430006DBD4002070BD000046
:102460002DE9F74F8EB00CA902A8CDE900010BAB06
:1024700003AA09A907A801F0FFFD20B14FF0FF3022
:1024800011B0BDE8F08FBDF80800C0057ED50398F7
:1024900005F022F86FF01D04214605F050FA82463F
:1024A000049805F019F8214605F049FA8146059887
:1024B00005F012F8214605F042FA8046069805F02C
:1024C0000BF8214605F03BFA05460121504605F080
:1024D00036FA0646414605F05FF807464FF04041A0
:1024E000484605F059F80446294605F055F839469E
:1024F00004F080FE04F052FE01F066F94FF0663BF6
:102500005A463D4B04F070FB04F034F90E99086014
:102510000121404605F013FA4146009005F03CF8D1
:1025200007462046494605F037F8394605F032F9A6
:102530004FF07E5104F05EFE04F030FE07460C467C
:102540003046494605F028F806462946009805F029
:1025500023F8314604F04EFE04F020FE3A462346AE
:1025600001F07AFB5A46244B04F03EFB04F002F9DA
:102570000F9908602946084605F00EF807464146BF
:10258000084605F009F80646494600E031E00846ED
:1025900005F002F804465146084604F0FDFF2146C6
:1025A00004F028FE314605F0F5F8394605F0F2F85A
:1025B00004F0F4FD06460C464146484604F0ECFFA4
:1025C00007462946504604F0E7FF394604F012FE5C
:1025D000012105F0B4F904F0E1FD3246234601F093
:1025E0003BFB5A46044B04F0FFFA04F0C3F8109981
:1025F0000860002044E7000066A64C4038B56846F5
:1026000002F066FC08B10A2038BD782003F0E6F934
:1026100008B1012038BD782002F08CFB08B10220FF
:1026200038BD642003F08EF908B1032038BD01F0F5
:1026300019FD08B1042038BD1648044602F034FBE9
:102640000546E01C02F030FB45EAC005A01D02F083
:102650002BFB45EA801080B201F0B6FE08B10520E0
:1026600038BD40F2731001F0D5FB08B1062038BD2B
:10267000642001F011FE08B1072038BD03F0BAFC58
:1026800008B1082038BD012003F058F80028F9D01F
:10269000092038BD6800002010B596B01C221149F1
:1026A0006846FDF72DFE0021684603F052FA0E4CF5
:1026B0000C491C22E0611C3107A8FDF721FE002116
:1026C00007A803F046FA074920621C2238310EA8F9
:1026D000FDF716FE00210EA803F03BFA606216B06B
:1026E00010BD0000BC79000814000020F0B585B0D2
:1026F000002525480095019502950395816941F0D3
:1027000020018161816901F020010491816941F01A
:1027100004018161816901F004010491816941F042
:10272000080181618069194E00F0080004900122BF
:1027300042F208013046FEF79DF8002244F21001F3
:102740003046FEF797F8124F012291023846FEF705
:1027500091F80022F1143846FEF78CF846F2180082
:1027600001248DE83100694630460394FDF792FF5D
:102770004FF440608DE83100694638460394FDF718
:1027800089FF05B0F0BD000000100240000C0140C0
:10279000000801400D4810B50B4901600C4941602B
:1027A00000214FF480428160C0E9031241618161E0
:1027B000C1610162FEF76AF8002803D0BDE810404D
:1027C000FDF7E5BE10BD000000580040F4030020F6
:1027D000A086010010B58EB00024079408940994D7
:1027E0000A940B941C2168460C94FDF7C3FD214804
:1027F0004FF08041C0E9001442F20F71C0E902417C
:1028000004618461FEF782FE08B1FDF7C0FE4FF45B
:102810008050079007A91748FEF7E4FE08B1FDF7BE
:10282000B6FE1448FFF759F908B1FDF7B0FE0B9456
:102830000BA910480C94FEF735FE08B1FDF7A7FE72
:102840006020CDE9000402940022694609480494FE
:10285000FFF7DDF808B1FDF79AFE04226946054846
:10286000FFF7D5F808B1FDF792FE0248FFF7A0F890
:102870000EB010BD4804002010B58CB0242168466D
:10288000FDF778FD00241848099416490A94C0E918
:1028900000144FF6FF71C0E9024104618461032016
:1028A000CDE900040120CDE902040F210491CDE916
:1028B0000540CDE9074169460B48FEF701FF08B125
:1028C000FDF765FE099409A907480A94FEF7EAFD99
:1028D00008B1FDF75CFE3C210348FEF789FF0CB010
:1028E00010BD0000000400409004002010B58CB022
:1028F00024216846FDF73EFD002418480994164936
:102900000A94C0E900144FF6FF71C0E90241046166
:1029100084610320CDE900040120CDE902040F21E8
:102920000491CDE90540CDE9074169460B48FEF722
:10293000C7FE08B1FDF72BFE099409A907480A94C0
:10294000FEF7B0FD08B1FDF722FE3C210348FEF77B
:102950004FFF0CB010BD000000080040D80400205C
:102960000C4810B50A4901604FF4E1314160002183
:1029700081600C22C160C0E904128161C161FFF76E
:102980006DFA002803D0BDE81040FDF700BE10BD71
:102990000044004020050020FEE7FEE770B500245B
:1029A0000021204600F0D6F80025002000F0F4F8C1
:1029B0006D1CEDB2802DF8D3641CE4B2082CEFD36B
:1029C00070BD000010B5064C012251032046FDF7F2
:1029D00051FF20460122BDE810409103FDF74ABF98
:1029E000000C01402DE9F047144E002407464FF03B
:1029F00080084FF48049751428FA04F23A40494699
:102A00003046FDF737FF012229463046FDF732FFF9
:102A1000002229463046FDF72DFF641CE4B2082C45
:102A2000EAD3012229463046FDF724FF29463046E5
:102A3000BDE8F0470022FDF71DBF0000000C01407B
:102A400070B501220B4D940321462846FDF712FF75
:102A50000122560331462846FDF70CFF002221468D
:102A60002846FDF707FF31462846BDE870400022A2
:102A7000FDF700BF000C014070B50A4D4FF48044D3
:102A8000002221462846FDF7F5FE01225103284683
:102A9000FDF7F0FE21462846BDE870400122FDF713
:102AA000E9BE0000000C014010B500204FF47A721E
:102AB0000021491C9142FCD3401C9042F8D3FFF7FF
:102AC00081FFAE2000F057F8D52000F054F88020A8
:102AD00000F051F8A82000F04EF83F2000F04BF82D
:102AE000D32000F048F8002000F045F8402000F026
:102AF00042F8A12000F03FF8C82000F03CF8DA20AE
:102B000000F039F8122000F036F8812000F033F898
:102B1000CF2000F030F8D92000F02DF8F12000F09F
:102B20002AF8DB2000F027F8302000F024F8A42059
:102B300000F021F8A62000F01EF88D2000F01BF810
:102B4000142000F018F8AF2000F015F8BDE8104090
:102B5000FFF724BF10B50C4640F0B00000F00BF8B2
:102B6000102040EA141000F006F804F00F00BDE851
:102B70001040AFF3008010B50446FFF761FF7820E6
:102B8000FFF730FF0020FFF72DFF2046FFF72AFF59
:102B9000BDE81040FFF770BF10B50446FFF750FFC7
:102BA0007820FFF71FFF4020FFF71CFF2046FFF7AC
:102BB00019FFBDE81040FFF75FBF2DE9F041044663
:102BC000104604F0E7FD606120F00040A16A04F0C7
:102BD000AFFC01D200206061D4E90465314628468B
:102BE00004F0D8FD0146A061206804F0D5FCA06384
:102BF0002946606804F0D0FC074660630121304636
:102C000004F09DFE06462846E16804F0F3FA3146DA
:102C100004F0C0FDA16804F0BFFC20633846E16900
:102C200004F086FDE06908D380F00040616B04F099
:102C30007FFD03D2E06980F000406063D4E90D01BC
:102C400004F0D8FA216B04F0D5FA216A04F0D2FA24
:102C50002062616A04F06CFD01D2606A2062606AE1
:102C6000216A80F0004004F063FD03D2606A80F0C6
:102C7000004020622069E06060692061BDE8F08169
:102C800070B50DF1100C9CE8700080E80E0000217A
:102C9000C1600161C0E9081486624161C0E906159E
:102CA00070BD2DE9F04104460D4621F00040A16AB7
:102CB00004F03EFC00D2002565612946E06A04F07C
:102CC00099FAE06207462846216904F063FD06464A
:102CD000A0612946206804F05FFCA0633946606863
:102CE00004F05AFC054660633146A06804F054FCC9
:102CF00020632846E16904F01BFDE06908D380F0F9
:102D00000040616B04F014FD03D2E06980F00040E4
:102D10006063D4E90D0104F06DFA216B04F06AFAE6
:102D20002062616A04F004FD01D2606A2062606A78
:102D3000216A80F0004004F0FBFC03D2606A80F05E
:102D40000040206260692061BDE8F08180E80E00EB
:102D500070470000044AA2F10801081DFFF780FB3C
:102D6000012002F0E3FEF5E72C00002086B000F021
:102D700047F9674E0024654D0096DFF89891CDE93C
:102D800001544FF07C574FF081483B46424649463C
:102D90006148FFF775FF00965F48CDE901543B4657
:102DA000424649463C30FFF76BFF5D485B498DE882
:102DB000130059485B4B00227830FFF761FF5A4DF2
:102DC000EC6003F009FC594EDFF864A1AB460590B6
:102DD000DBF81400DBE9019880F0004555485C46BB
:102DE000016811F0FF4F08D1306810F0FF4F04D197
:102DF000DAF8000010F0FF4F06D04748DAF800304C
:102E000078303268FFF7A2FF434829467830FFF751
:102E100048FF4948404F00687837E060396A04F05D
:102E2000E9F902464146A7F13C00FFF7C6FE396AC0
:102E3000E06804F0DFF9024649463748FFF7BDFE77
:102E4000A7F13C044FF40007206AB8420DDBDFF81D
:102E5000EC80012208214046FDF70CFD00221021E4
:102E60004046FDF707FD206A11E010F1FF4F0FD338
:102E7000DFF8C880002208214046FDF7FBFC012254
:102E800010214046FDF7F6FC206A80F000400490D7
:102E9000214C206AB8420CDB294F012291023846AE
:102EA000FDF7E8FC0022F9143846FDF7E3FC206A40
:102EB00013E010F1FF4F01D203980FE0204F0022E2
:102EC0004FF480613846FDF7D5FC0122D102384627
:102ED000FDF7D0FC206A80F00040039004F0DCFA9B
:102EE000184C21684863049804F0D6FA2168886376
:102EF000284600F081FB002000F07EFB00F088FBFC
:102F0000042105A802F019FE62E7000000409C457C
:102F100000401C460000F041EC0000200000A041F1
:102F200000004844666603431400002008000020A7
:102F30000C0000200400002010000020000C0140C4
:102F4000000801404804002008B503F045FBDFF805
:102F50008CA0234C234E244FDFF89080DFF8909014
:102F60004FF0000BCDF80000DAF80030586A02B2DA
:102F7000204822800168496A0DB26580C3F824B0F8
:102F80000068C0F824B0104604F0A6FA314604F0F8
:102F9000A5F9194904F0A2F9394604F0FDFA4146B1
:102FA00004F09CF9494604F0F7FA6060284604F002
:102FB00093FA314604F092F9104904F08FF939463A
:102FC00004F0EAFA414604F089F9494604F0E4FACB
:102FD000A0600321684602F0B0FDC5E79004002020
:102FE000140000200000504200007A4400004040DD
:102FF00000007042D80400200000A0C10000A041E1
:10300000012202490248FEF79BBF00000200002097
:103010002005002010B5502080F31188BFF34F8F9A
:10302000BFF36F8F03F0DEFA18B104494FF0805000
:103030000860002080F3118810BD000004ED00E05E
:1030400030B58FB028216846FDF794F914210AA8FD
:10305000FDF790F901210804CDE900100024029445
:1030600002250491CDE907504FF4E010099068461D
:10307000FEF786F808B172B6FEE70F20CDE90A0523
:103080004FF48060CDE90C4002210AA80E94FDF7B0
:103090007BFF002801D072B6FEE70FB030BD70474D
:1030A0000148FEF7EDBB000068050020F0B502689E
:1030B000194B1A4C1A4D4FF08047984205D0B84230
:1030C00003D0A04201D0A84203D122F070064A6882
:1030D0003243984205D0B84203D0A04201D0A84262
:1030E00003D122F44074CA6822434C6922F0800262
:1030F000224302608A68C2620A688262984201D1F1
:1031000009690163012141610169C90703D00169AE
:1031100021F001010161F0BD002C014000040040DC
:103120000008004010B501F01F030121046A994016
:103130008C430462016A9A401143016210BD10B5CC
:10314000846842EA032224F47F440A4322438260D3
:1031500010BD826822F070020A4342F007018160CC
:103160007047000030B5036A026A22F00102026271
:103170004268846924F073050C682C4323F002052F
:103180008B682B430A4DA8420BD123F00805CB686E
:1031900022F440722B434D6923F0040315438A69DE
:1031A0002A434260846149684163036230BD000084
:1031B000002C014030B5026A036A23F01003036259
:1031C000436884690D6824F4E64444EA05248D6864
:1031D00022F0200242EA05120B4DA8420ED1CD6822
:1031E00022F0800242EA05124D6923F4406343EA6B
:1031F00085038D6922F0400243EA850343608461C0
:1032000049688163026230BD002C014030B5036A19
:10321000026A22F4807202624268C46923F4007375
:1032200024F073050C682C438D6843EA05230C4D8C
:10323000A8420ED1CD6823F4006343EA05234D690B
:1032400022F4405242EA05128D6923F4806342EA77
:1032500005124260C4614968C163036230BD000069
:10326000002C014030B5046A026A22F480520262E6
:103270004268C3690D6823F4E64343EA05238D6879
:1032800024F4005444EA0534064DA84204D14D69A3
:1032900022F4804242EA85124260C36149680164B7
:1032A000046230BD002C014010B5036A046A24F0AA
:1032B00001040462846924F0F00444EA021423F057
:1032C0000A020A438461026210BD10B5036A046AEF
:1032D00024F010040462846923F0A00324F47044F1
:1032E00044EA023243EA01118261016210BD10B565
:1032F000406A0021C185C184FEF778FC10BD0168D9
:103300000C3151E8002F22F4907241E80023002B89
:10331000F5D10168143151E8002F22F0010241E893
:103320000023002BF5D1016B012909D101680C3173
:1033300051E8002F22F0100241E80023002BF5D1C4
:10334000202180F8421000210163704708B590F8F1
:103350004210222901D0022008BD82684FF4805318
:103360009A4201D1016921B1816A9A421BD04AB1C6
:103370000AE00268816A5268C2F308020A80816A20
:10338000891C08E0026972B10268526802F07F028B
:103390000A70816A491C8162C18D491E0904090CA9
:1033A000C18503D01BE002685268F1E70168CA6872
:1033B00022F02002CA600168CA6822F48072CA60E2
:1033C00001684A6922F001024A61202180F8421016
:1033D00000214163026B012A03D0FEF7BFFD0020EC
:1033E00008BD016301680C3151E8002F22F0100282
:1033F00041E80023002BF5D101680A68D20602D506
:103400000A6849680091818DFEF7EFFBE7E700004D
:1034100070B5044600680169E26821F44051114327
:1034200001612169A0680843616908432168CA688D
:1034300041F20C639A430243CA6020684169A26961
:1034400021F44071114341611E492068884202D134
:10345000FDF760FE01E0FDF74DFE00EBC00101EB62
:103460000012606864218000B2FBF0F3B3FBF1F35B
:103470006FF018067343B2FBF0F5B2FBF0F605EB04
:103480008305322303EB0515B5FBF1F5B6FBF1F629
:1034900005F0F00505EB0615B2FBF0F6B2FBF0F017
:1034A000B0FBF1F06FF01802504306EB800003EB25
:1034B0000010B0FBF1F0216800F00F002844886094
:1034C00070BD00000038014081628285C285002104
:1034D0004164222180F84210016921B10168CA6863
:1034E00042F48072CA6001684A6942F001024A618E
:1034F0000068C16841F02001C160002070472DE9DB
:10350000F843984617460D460446089E24E0701C72
:1035100022D0FDF7B5F9A0EB0800B0421AD8CEB121
:103520002068C168490717D5802D15D0402D13D0CC
:103530000168C94309070FD401680025406800905D
:103540002046FFF7DCFE0820606484F8405001202C
:10355000BDE8F8830320FBE72068006835EA000037
:1035600004D00020B842D2D00020F1E70120F9E7D2
:103570000148FEF73DBB000020050020FEE70000EB
:1035800030B51C49002203244B78052B0ED2DFE80E
:1035900003F00307102E0E00A52807D1012004E038
:1035A000032804D80A70C8700220487030BD4A70E1
:1035B00030BD104ACB78127833B1012B07D0022BE3
:1035C00008D0032B09D00BE00A4B1B1D07E0094B69
:1035D000083304E0074B0C3301E0064B10339854DA
:1035E000521CD0B208700428E2D34C7030BD5A2867
:1035F000DDD130BD0000002008B54FF0FF33009052
:10360000042269460148FEF7B9FC08BD20050020E8
:1036100008B505A04FF0FF3300680090042269460A
:103620000248FEF7ABFC08BD0000807F20050020AB
:10363000490050EAC12018BF04204A0D18BF40F0CD
:10364000010040F2FF72B2EB515F08BF40F0020090
:10365000012808BF052070470907090E002804DB70
:1036600000F1E02080F80014704700F00F0000F136
:10367000E02080F8141D70472DE9F0414F1E00EB4B
:10368000C7010446D1E9000115461E4637F006027F
:103690000DD02A46334603F0A7FA7F1E04EBC7037A
:1036A000D3E9002303F098F837F00602F1D1022F96
:1036B00025D0042F13D0062F18BFBDE8F0812A466D
:1036C000334603F091FAD4E90A2303F085F82A4639
:1036D000334603F089FAD4E9082303F07DF82A463B
:1036E000334603F081FAD4E9062303F075F82A463D
:1036F000334603F079FAD4E9042303F06DF82A463F
:10370000334603F071FAD4E9022303F065F82A4640
:10371000334603F069FAD4E90023BDE8F04103F031
:103720005BB8012204F0DDB803F056B8002213465E
:103730001046114603F000B9024A0020110704F0B8
:10374000D0B8000001FDFFFF2DE9FE4F07460E46F1
:103750000025684600F0DCFF00246FF00F0AE84601
:103760004FF0010957F8240056F82410401A00D5EC
:10377000404203F0B1FE514604F0E1F858F824103D
:1037800011F0FF4F0BD003F0A9FD4FF07E5104F074
:1037900001F80A4920F00040884205DC07E00849AA
:1037A00008440849884202D309FA04F00543641C1E
:1037B000032CD7DB2846BDE8FE8F0000295C0F3EB6
:1037C000666666C19A99D9002DE9F04D8D4F21F0BA
:1037D000004A86B005460C46BA452ADBAAEB07002C
:1037E00028430AD08848824501DC1AD1CDB106B001
:1037F0002846BDE8F04DFFF794BF844A844B284625
:1038000003F0F2F907460E46824A834B28462146CA
:1038100003F0EAF906B03A463346BDE8F04D02F04F
:10382000DBBF0120FCF74CFE06B0BDE8F04DFFF712
:103830007DBF7A48824542DABAF1795F0BDA2846D1
:10384000FFF7F6FE042808BFFFF776FF284606B00C
:103850002146BDE8F08D2A460B46104603F0C4F918
:10386000834602466E480E460B4606217844FFF713
:1038700003FF5A46334603F0B7F9804669488A4643
:103880005A46334604217844FFF7F6FE5A4633463B
:1038900003F0AAF900223B4602F09EFF02460B46C7
:1038A0004046514603F048F82A46234603F09CF967
:1038B00006B02A462346BDE8F04D02F08DBF2846EB
:1038C00024F0004100223D463B4603F08BFA4FF0C6
:1038D000FF3204F006F80646024653480F460B46F0
:1038E00006217844FFF7C8FE32463B4603F07CF9D8
:1038F000CDE900014D4832463B4604217844FFF7AC
:10390000BBFE32463B4603F06FF900222B4602F025
:1039100063FF834602913046394602F0EBFB804656
:1039200043480D46504517DCDDE900015A46029B2D
:1039300003F002F842462B4603F056F942462B4666
:1039400002F04AFF012203F0CCFF304A304B03F073
:103950003BFB304A304B4CE04FF0000A52460B46DE
:10396000404602F039FFCDE9031052462B4610467F
:10397000194603F039F932463B4603F033FADDE9E4
:10398000033202F0D9FF06460F46DDE900015A4630
:10399000029B02F0D1FF8346009101223046394656
:1039A00003F09FFF194A1A4B03F01CFA06460F4614
:1039B00001224046294603F094FF5A46009B03F03B
:1039C00013F932463B4603F0FFFA06460F46012242
:1039D0005046294603F085FF0E4DDFF858802A46F1
:1039E000434603F0FFF932463B4603F0FBF92A4613
:1039F000434603F0F7F9002CD8BF81F0004106B030
:103A0000BDE8F08D0000F03F0000F07F075C14334C
:103A100026A6913C182D4454FB21F93F0000E03FBD
:103A2000184E00002E4E0000A24D0000B84D0000C0
:103A30003333EF3FFB21E93F2DE9F84F04460D46B4
:103A400021F0004000917349814211DC72498842A3
:103A500001DC06D12CB120462946BDE8F84FFFF71E
:103A600060BE6E48002DCCBF6D496E49BDE8F88F31
:103A70006D49814211DD6D498142D8BF4FF0FF365B
:103A80006DDD20462946FFF7D3FD042808BFFFF768
:103A900053FE20462946BDE8F88F6549654F25F05D
:103AA0000045814233DD6449814219DD00263246FA
:103AB0004FF080432046294602F08EFE80468A461B
:103AC00001222046294603F00CFF00223B4603F06A
:103AD0007BFA4246534602F02FFF04460D463EE075
:103AE00001260022BA463B462046294602F074FED3
:103AF00080460F46002253462046294603F064FACA
:103B000042463B4602F018FF04460D4627E04B496B
:103B100081421BDDDFF828A1022600225346204601
:103B2000294603F061F800223B4602F055FE80462C
:103B30000F46002253462046294603F045FA4246E6
:103B40003B4602F0F9FE04460D4608E003262246F5
:103B50002B4600203B4902F0EFFE04460D4622466C
:103B60002B461046194603F03FF88B468246024624
:103B70000B4603F039F807460246334888460B46A1
:103B800006217844FFF778FD52465B4603F02CF897
:103B900082462E488B463A46434605217844FFF735
:103BA0006BFD3A46434603F01FF802460B46002ED3
:103BB000504659460CDA02F00FFE22462B4603F01F
:103BC00013F801B022462B46BDE8F04F03F00AB9C6
:103BD00002F002FE22462B4603F006F81C4A7A4405
:103BE00002EBC603D3E9002303F0EEF922462B468D
:103BF00003F0EAF9174A7A4402EBC603D3E900233B
:103C000003F0F0F8009A002AB8BF81F00041BDE847
:103C1000F88F0000000010440000F07F182D44547D
:103C2000FB21F93FFB21F9BF0000DC3F0000203EF3
:103C30000000F33F0000F03F0000E63F008003403B
:103C40000000F83F0000F0BFBA4B0000784B0000C6
:103C5000164B0000DE4A00002DE9F04D9446CCF1F1
:103C6000000423F000464CEA0404524F46EAD474A0
:103C70009A46884621F00042BC4206D8454240EAB6
:103C8000050442EAD474BC4204D9BDE8F04D624652
:103C9000FFF74ABDAAF14055A5F17F6555EA0C042E
:103CA0000BD0022404EAAA74434DDFF810E144EA81
:103CB000D87452EA000B04D00CE0BDE8F04DFFF7D9
:103CC000BBBE002C14BF012CBDE8F08D022C30D0FF
:103CD000032C32D056EA0C0B0AD0BE4220D1BA4295
:103CE00009D126F0804622F080423346114617E083
:103CF00000291ADB25E0DFF8C8B0FB44002C04BF24
:103D0000DBE90001BDE8F08D012C02BFDBE9000119
:103D100081F00041BDE8F08D022C0AD0032C0CD0BC
:103D2000BA4212D1B8F1000F0BDA23482549BDE899
:103D3000F08D28462449BDE8F08D28467146BDE83F
:103D4000F08D1D482149BDE8F08D921B12153C2ACB
:103D5000C4BF19481D490EDCBAF1000FBEBF12F1F5
:103D60003C0F0020014606DB624602F0E5FD21F033
:103D70000041FFF761FE002C08BFBDE8F08D012C6B
:103D800004BF81F00041BDE8F08D114A114B022CB7
:103D900007D003F019F92A46BDE8F04D0A4B03F0AD
:103DA00013B903F011F92A46BDE8F04D064B03F0B4
:103DB00019B800000000F07F182D4454FB2109C001
:103DC000724A0000FB21F9BFFB210940FB21F93FAA
:103DD000075C143326A6A13C08B560B120208DF8FD
:103DE000000028208DF8010030208DF802003820D6
:103DF0008DF8030004E0A32204216846FCF7B2FA20
:103E00006A46042140F69E2001F056FE01F066FA53
:103E100008BD00003EB5044602208DF80000CA200F
:103E20008DF80100E3208DF8020009208DF80300D1
:103E30006A460421682001F03FFEA3208DF80000AF
:103E4000610609D5C0218DF80110C8218DF8021036
:103E5000C2218DF8031005E08DF801008DF80200F5
:103E60008DF8030014F4C07F09D0C4218DF804102C
:103E7000CC218DF80510C6218DF8061005E08DF8CF
:103E800004008DF805008DF806008DF808008DF807
:103E900007008DF809006A460A2140F6A72001F0C4
:103EA0000BFEA0074FF0D80503D020208DF80000AE
:103EB00001E08DF800506A46012140F6B62001F07D
:103EC000FBFDA00601D5012000E0002000F08EF8E7
:103ED00014F4C07F1ED0E0050AD5B2208DF8000092
:103EE0008B208DF80100B6208DF802009B2009E0A0
:103EF000B0208DF8000080208DF80100B4208DF8EE
:103F0000020090208DF803006A46042140F6A220AA
:103F100001F0D2FDE1074FF40B6022D0F8218DF8BB
:103F200000106A46012101F0C7FDFA21072000F0C8
:103F30003BFB072000F006FB012000F023FB642080
:103F400000F0C6FB4FF4FA7000F0D2FBC821254800
:103F500000F0C0FA282000F0D5FA0A2000F0E2FABA
:103F600005E08DF800506A46012101F0A5FDA0078B
:103F700003D5D9208DF8000001E08DF800506A4685
:103F8000012140F23D7001F097FD600701D501204D
:103F900000E0002000F048F8E00601D5012000E034
:103FA0000020FFF719FF104D44F00800688101F070
:103FB00095F90020A873600601D50620A87314F4B3
:103FC000C07F02D0A87B801DA87314F0140F02D00C
:103FD000A87B1030A873A00702D0A87B001DA8738F
:103FE00000203EBD09E3CA02B00500200EB54FF423
:103FF000976310B106A107C901E008A207CA8DE8BE
:1040000007006A460921184601F056FD0EBD000062
:10401000B8AAB38DB4980D355D000000B8AAAAAA5D
:10402000B088C3C5C700000008B560B1C0208DF8D6
:104030000000C2208DF80100C4208DF80200C620C7
:104040008DF8030004E08B2204216846FCF78AF90E
:104050006A46042140F6982001F02EFD01F03EF959
:1040600008BD0000C8234FF48062024940F6F630D4
:1040700000F0D8BF647A00082DE9FF4F89B01746D9
:10408000DDE9165200244D4E884681462C80A2461A
:10409000B07B694601F088F84FF0FF3B18B15846F5
:1040A0000DB0BDE8F08F708910F0140F3CD000996E
:1040B00009BA21F0FF039DF803100B433B600199FF
:1040C0001B1409BA21F0FF029DF807105B430A4355
:1040D0007A6002999DF80B4009BA21F0FF01214353
:1040E000B960039C091424BA24F0FF0C9DF80F401A
:1040F00012144CEA040CC7F80CC04FEA2C47494391
:1041000002FB023207FB071111441024A1F1706178
:10411000B1F1007F04D901F0E1F8A5F800A0BEE7F5
:10412000298841F4807129804206694611D50A190F
:10413000A41D13885BBAA8F8003053885BBAA8F8AE
:104140000230928852BAA8F804202A8842F0080265
:104150002A8010F4C07F11D00A19A41D13885BBAFD
:10416000A9F8003053885BBAA9F80230928852BA95
:10417000A9F804202A8842F070022A80800716D00D
:104180000C44E07800F0C00500F03F016078C00703
:1041900006D0C80801F007013268491C02B19047F7
:1041A0006078000703D5716809B1A8098847FCF752
:1041B00067FB0C990860002072E70000B005002042
:1041C0002DE9FF41044603A800F0FCFDBDF80C00FA
:1041D000410CC30300BF2F48028902F003005507BA
:1041E00054F8200000D54042C2F3C105960654F8A9
:1041F000255000D56D42C2F38116D20554F82640F1
:1042000000D56442A0FB0367C21702FB037200FBE8
:104210000120820042EA9670A5FB0367EA1702FBC1
:10422000037205FB0122950045EA9672A4FB036721
:10423000E51705FB037304FB01318B0043EA96711C
:10424000030E8DF80030030C8DF80130030A8DF851
:1042500002308DF80300100E8DF80400100C8DF85C
:104260000500100A8DF80600080E8DF80800080CED
:104270008DF80900080A8DF80A008DF807208DF8DE
:104280000B106A460C214FF4257001F015FC04B0A8
:10429000BDE8F081B005002030B5044613A285B01A
:1042A00007CA8DE807004FF0FF35C82C16D8C82084
:1042B000B0FBF4F1491E080A8DF80C008DF80D10C2
:1042C00003AA022140F2162001F0F6FB30B96A463B
:1042D0000C2140F6C12001F0EFFB10B1284605B0DB
:1042E00030BD054884810020F9E70000FEF2ABC430
:1042F000AAF1DFDFBBAFDFDFB0050020F8B5304942
:10430000098901F0030250F822404A0700D56442AF
:10431000C1F3C1028B0650F8222000D55242C1F3EE
:10432000811350F82330C80500D55B42254984FB32
:104330000140850045EA947082FB0142A40F44EAE3
:10434000820483FB0121950F45EA8105010E8DF85A
:104350000010010C8DF80110010A8DF802108DF883
:1043600003006A4604214FF4747001F0A5FB4FF07E
:10437000FF3688B9200E8DF80000200C8DF8010062
:10438000200A8DF802008DF803406A4604214FF49C
:10439000757001F091FB08B13046F8BD280E8DF81C
:1043A0000000280C8DF80100280A8DF802008DF815
:1043B00003506A4604214FF4767001F07DFBF8BD8E
:1043C000B005002009E3CA022DE9FF4104463CA0E4
:1043D00004F00303006802903AA0006803903AA03A
:1043E00006683AA0056802A8C15C8DF80010C4F305
:1043F000C101425C8DF80120C4F38112805C8DF80C
:10440000020003A8C35C8DF80430415C8DF80510F0
:10441000805C8DF806006A46032140F2264001F0D8
:104420004BFB4FF0FF37E0BB01AA032140F22A40CB
:1044300001F042FBA8BBCDE9006560070BD59DF8F4
:10444000000040F001008DF800009DF8040040F0ED
:1044500001008DF80400A0060BD59DF8010040F086
:1044600001008DF801009DF8050040F001008DF875
:104470000500E0050BD59DF8020040F001008DF825
:1044800002009DF8060040F001008DF806006A4623
:1044900003214FF4886001F00FFB10B901AA03213A
:1044A00000E004E040F2314001F006FB18B138466C
:1044B00004B0BDE8F081064804810020F8E7000060
:1044C0004CCD6C000CC92C00365676002646660092
:1044D000B00500204FF47A7290FBF2F008B5484323
:1044E000010E8DF80010010C8DF80110010A8DF8F5
:1044F00002108DF803006A4604214FF4AE7001F0FB
:10450000DBFA08BD0521B0FBF1F008B5010A8DF812
:1045100000108DF801006A4602214FF4AD7001F0E1
:10452000CBFA08BD0521B0FBF1F008B5010A8DF802
:1045300000108DF801006A4602214FF4AC7001F0C2
:10454000BBFA08BD08B500218DF80010C10702D0E4
:1045500030218DF80010810705D59DF8001041F03D
:104560000C018DF80010400705D59DF8000040F0C3
:1045700003008DF800006A4601214FF4A47001F099
:104580009BFA08BD08B560B1042800D90420401E7C
:104590008DF800006A46012140F24F1001F08CFABC
:1045A00008BD0120F3E700002DE9FC410546400766
:1045B0004FF0FF367CD0B1F5C86F79D8084602F0CD
:1045C000A3FF3E4902F08AFE074601A800F0DCFB8B
:1045D0009DF80400022806D004280DD008282ED00B
:1045E000102865D134E00E21384603F0A8F902F016
:1045F00053FF84B2324907E00D21384603F09FF99A
:1046000002F04AFF2F4984B2384602F0C5FF02F09B
:1046100043FF210A8DF8001080B28DF80140010A95
:104620008DF802108DF80300E8076C4620D0224672
:1046300002214FF4EA7001F03FFAC8BB11E00C21EF
:10464000384603F07CF902F027FF84B21E49DBE70D
:104650000B21384603F073F902F01EFF84B21B49A8
:10466000D2E7A21C02214FF4927001F025FAF8B9AA
:10467000A8070DD56A4602214FF4EC7001F01CFA30
:10468000B0B9A21C02214FF4947001F015FA78B968
:10469000680710D56A4602214FF4EE7001F00CFA5B
:1046A00030B9A21C02214FF4967001F005FA10B146
:1046B0003046BDE8FC810020FBE7000000004843D5
:1046C000000040460000C045000040450000C044D6
:1046D0000521B0FBF1F008B5010A8DF800108DF846
:1046E00001006A4602214FF4EF7001F0E5F908BDC0
:1046F0000521B0FBF1F008B5010A8DF800108DF826
:1047000001006A4602214FF4ED7001F0D5F908BDB1
:104710002DE9F04385B006464FF48072042104A8C9
:104720008DE80700264801230D22406801782548BE
:10473000FCF770F918B1072005B0BDE8F0839DF8CB
:1047400010101C2000EAD1029DF81310DFF87890B9
:10475000C1F301131A438DF80C209DF81120C1F309
:10476000810300EAD2021A438DF80D209DF8122031
:1047700001F0030100EAD20008430024134F8DF832
:104780000E00A04603AD285D10B146F824900AE063
:1047900046F824800DE000BF56F82400394602F0A8
:1047A000FBFE46F82400285D401E10F0FF0028554F
:1047B000F2D1641CE4B2032CE5D30020BCE7000076
:1047C0003C000020F40300207B14AE3E1D5A843FC1
:1047D0002DE9F04F87B04FF0010A0C4605468DF8E1
:1047E0000CA04FF000080DF10C098DF80D804FF46E
:1047F000807602214846DFF8C4B38DE84300DBF839
:104800000010DBF8040017464A7D01785346EC4857
:10481000FCF72EFA00287DD1C820FBF729FF0020E5
:104820008DF80C00B046CDF80090CDE901A8DBF87A
:1048300000005E460123427CDBF804000178E0487A
:10484000FCF716FA0028E6D1C346D046CA46CDE9A1
:1048500000A8CDF808B031687068B1464A7901788F
:104860000123D748FCF704FA0028D4D103A9CDE9E5
:104870000018CDF808B0D9F80010D9F804005E4649
:104880004A7D0178CA460123CD48FCF7F1F900289A
:10489000C1D1C1460DF10C08B34642468DE8040A69
:1048A000DAF8000056460123827EDAF80400017827
:1048B000C348FCF7DDF90028ADD1CA46C1468DE8F2
:1048C000000E30680123027970680178BC48FCF75B
:1048D000CFF900289FD10C208DF80C00CDF8009066
:1048E000CDE901AB3068D8460123027970680178C0
:1048F000B348FCF7BDF900288DD10F20FBF7B8FEB7
:10490000B06A407A8DF80C00CDF80090CDE901A88E
:10491000306800E097E08278706801230178A84849
:10492000FCF7A6F900288ED1B06A0123007A8DF831
:104930000C00CDF80090CDE901A83068427870688D
:1049400001789F48FCF794F900287CD1B06A807AFE
:104950000FB140F0E0008DF80C00CDF80090CDE9EB
:1049600001A8306801238279706801789448FCF7C7
:104970007FF9002867D127B1B06AC07A40F0E00023
:1049800000E018208DF80C00CDF80090CDE901A8CA
:1049900031687068CB46CA79017801238848FCF7F2
:1049A00067F9002871D117B1C820FBF761FE4020DC
:1049B0008DF80C004746CDF800B0CDE901A730686E
:1049C000D146D84602797068012301787C48FCF70B
:1049D0004FF9C0BB78208DF80C00CDF80080CDE9F0
:1049E0000197306801234279706801787448FCF7B8
:1049F0003FF940BB3220FBF73BFE4FF0000ABB46BD
:104A00008DF80CA047468DE8800A30680123427972
:104A1000706801786A48FCF72BF9A0B9D9460220E2
:104A20000097CDE9010931687068BB460A7B0178BF
:104A3000B04601236248FBF7EDFF20B9BDF80C003A
:104A40000C2140BA00E020E0B0FBF1F0C5F808A06E
:104A5000C5F804A0C5F800A0C4F808A0C4F804A0D4
:104A6000C6B20027C4F800A040E00C21CDF800B089
:104A7000CDE90119D8F80010D8F8040001234A7BC9
:104A800001784F48FBF7C6FF20B14FF0FF3007B069
:104A9000BDE8F08FBDF80C00236840BA01B2BDF844
:104AA0000E00194440BA02B2BDF8100021606168DE
:104AB00040BA11446160A16800B20844A060BDF82A
:104AC00012002B6840BA02B2BDF81400BDF81610EF
:104AD0001A442A6040BA6A6800B21044686049BA51
:104AE000A86809B208447F1CFFB2A860B742BCD3D3
:104AF00028688322C117090441EA104100040023F9
:104B0000FBF7AEFB32460023FBF7AAFB2860686880
:104B10008322C117090441EA104100040023FBF776
:104B20009FFB32460023FBF79BFB6860A86883224B
:104B3000C117090441EA104100040023FBF790FB70
:104B400032460023FBF78CFBA86020684FF4006519
:104B5000C117090441EA104100042A460023FBF76B
:104B60007FFB32460023FBF77BFB206060682A4610
:104B7000C117090441EA104100040023FBF770FB50
:104B800032460023FBF76CFB6060A0682A46C11721
:104B9000090441EA104100040023FBF761FB32469F
:104BA0000023FBF75DFBA060002802DDA0F580304C
:104BB00001E000F58030A060002068E73C000020A4
:104BC000F40300202DE9FF5F8846814603AE4FF4D1
:104BD000807003210096CDE901102D4800250123A6
:104BE00040680D2201782B48FBF714FF18B107200D
:104BF00004B0BDE8F09F9DF80C00002400F01F00F9
:104C00008DF80C009DF80D006FF00F0B00F01F00E9
:104C10008DF80D009DF80E004FF0010A00F01F0006
:104C20008DF80E0059F8241058F82400081A00D501
:104C3000404202F051FC594602F081FE0746305DC9
:104C4000C0B1154802E0154902F0A6FC315D491ECD
:104C500011F0FF013155F6D10146384602F03EFB16
:104C60004FF07E5102F096FD0D4920F00040884241
:104C700005DC07E00B483844B0F1D97F02D90AFAC5
:104C800004F00543641C032CCCDB2846B0E700008D
:104C90003C000020F40300200000C84154E3853F9D
:104CA000295C0F3E0000E0BE90F90010002902DDF3
:104CB0004FF00000704702DA4FF00400704790F99F
:104CC0000110002902DD4FF00100704702DA4FF0B9
:104CD0000500704790F90200002802DD4FF0020045
:104CE000704702DA4FF0060070474FF00700704738
:104CF000FCF78EF8FEF7A4F9FDF7F8FCFDF76AFD66
:104D0000FDF7BAFDFDF7F2FDFDF72AFEFDF742FDC6
:104D1000FDF7CAFEFDF772FC0028FBD1FDF7BCFCD5
:104D200000F012FFFEE701460020842900D0C81CD5
:104D3000704700002DE9F041124C20F001010025E0
:104D400094F8240010B10020BDE8F081A07A4FF063
:104D5000FF3668B10840277C2074884200D0354671
:104D600041B1012001F088F900F0B8FA38B1277498
:104D70003046E9E7207D00B1012001F07DF92846A9
:104D8000E2E700003C0000200D494A7A42B1012AC6
:104D900008D0022A0FD0032A0FD04FF0FF307047FF
:104DA000022200E004220270C97C11B11106C90D73
:104DB0000170002070470822F5E71022F3E7000099
:104DC0003C0000200F494A7A42B1012A09D0022A48
:104DD00011D0032A12D04FF0FF3070474FF48042B9
:104DE00001E041F69C720280C97C11B1C2F34E0110
:104DF0000180002070474FF48052F4E74FF40062C6
:104E0000F1E700003C0000200B49097A39B1012983
:104E100007D002290AD003290BD0002103E0FA2190
:104E200001E04FF4FA710180002070474FF47A716D
:104E3000F9E74FF4FA61F6E73C0000200A49097AE5
:104E400041B1012908D002290AD003290AD04FF024
:104E5000FF307047054900E00549016000207047B8
:104E60000449FAE70449F8E73C0000200000034346
:104E70000000834233330342333383410C49C97A00
:104E8000072913D2DFE801F01204060A0C0E100005
:104E9000BC2100E062210180002070472A21FAE74E
:104EA0001421F8E70A21F6E70521F4E70021F2E7EB
:104EB0003C000020054991F8242012B14FF0FF304A
:104EC0007047C98901800020704700003C00002025
:104ED0002DE9F04786B080208DF80C0047000DF1D9
:104EE0000C09012648464D4C8DE8C1002068334628
:104EF000427D606801784A48FBF7BAFE4FF0FF3AFE
:104F0000002838D16420FBF7B3FBCDE900960025DB
:104F1000B8468DF80C50CDF8088020684F46012324
:104F2000427D606801783E48FBF7A2FE00286CD104
:104F30000621CDE90071CDF8088020680123427E6A
:104F4000606801783648FBF765FD00285DD19DF863
:104F500011009DF80F10C007400F01F0010140EA59
:104F600041009DF80D1001F00101084304D0012813
:104F700035D0022814D048E0CDE90076CDF808807D
:104F800020680123C278606801782548FBF742FD5C
:104F9000D8BB9DF80C0010F00F0036D004281ED0AE
:104FA000E574FF2004F80A0F4FF6FF7104F8020CB5
:104FB00004F8010C6070A180A0712072A6702676A2
:104FC0006576E572A572E56025616561A576E57691
:104FD000A5834FF4FA6000F0FBFBB0B901E0E67482
:104FE000DFE7022000F0D2FA78B92A2000F06AFC4C
:104FF00058B9322000F0A6FC38B90020FFF79AFE1D
:1050000018B9002000F0FEFA18B1504606B0BDE80D
:10501000F087002000F0E2FC0020F7E73C000020D1
:10502000F40300202DE9FF4FDFF8A080064689B089
:1050300098F8250015460F464FF0FF39E0BBDFB367
:10504000002420E0301B102800DD102080B28346B1
:105050003A1901469246204600F02EFD60BB03AA95
:105060005946204600F000F930BB50465A4603A985
:10507000FBF71AF920B16FF001000DB0BDE8F08F19
:1050800004EB0B0084B2B442DCD3280A8DF81C0078
:105090008DF81D504FF48072022107A88DE807009B
:1050A000D8F8000044460123427FD8F80400017874
:1050B0000748FBF7DDFD08B14846DEE7012084F82C
:1050C00025000C98E0840020D7E700003C00002079
:1050D000F40300202DE9FF5F0546282851D800265B
:1050E0002F4C0DF10C094FF007084FF4807A02277E
:1050F0007DB1012000F0ACFB20208DF80C004FF0BA
:10510000010B012D1BD0052D1CD88DF80DB00520ED
:1051100022E0002000F09CFBCDE900978DF80C60A8
:105120008DF80D80CDF808A020680123427D6068CD
:1051300001781C48FBF79CFD18BB26752EE08DF806
:105140000D60E4E7142D03D88DF80D700A2003E0FC
:1051500003208DF80D00142000F0B4FB9DF80D1015
:10516000CDE9009708EB81108DF80D00CDF808A06F
:1051700020680123427D606801780A48FBF778FDCA
:1051800020B14FF0FF3004B0BDE8F09F0820A072BE
:10519000267384F814B00020FFF7CCFD0020F2E75E
:1051A0003C000020F40300202DE9FF5F2C4C064654
:1051B000904694F824008B464FF0FF3AC0B3A07A93
:1051C000B0B30DF10C094FF48077022148468DE809
:1051D000830020680123027B606801782148FBF787
:1051E00019FC28BBBDF80C0045BAB54203D200211A
:1051F00088F800102AE060684188B5EB510F18D993
:105200000122CDF80090CDE9012721680123CA7C55
:1052100001781448FBF7FEFB50B99DF80C00C0065E
:1052200007D500F05BF86FF0010004B0BDE8F09F17
:105230000CE0CDF800B0CDE9016720680123427B86
:10524000606801780748FBF7E5FB08B15046ECE7DA
:10525000B5FBF6F0401E88F800000020E5E70000EE
:105260003C000020F40300202DE9FF4115000E460C
:105270004FF0FF3729D0174CA17A31B3010A8DF8CE
:105280000C10C0B28DF80D008119606842899142FE
:105290001BD8022203ABCDE900324FF48078CDF861
:1052A000088021680123CA7E01780B48FBF7E0FCE7
:1052B00058B98DE8600120680123027E606801789A
:1052C0000548FBF7A7FB002800D0384604B0BDE82E
:1052D000F08100003C000020F40300202DE9FF478E
:1052E0006C4C4FF0FF3AA07A00287CD000270DF1DB
:1052F0000C088DF80C704FF48076012540468DE83F
:10530000610020682B46427C606801786248FBF7A8
:10531000AFFC002867D1CDF80080CDE901562168A7
:10532000606801234A7901785B48FBF7A1FC0028FB
:1053300059D1CDF80080CDE901562168606801237C
:105340000A7901785448FBF793FC00284BD194F874
:10535000240088B30C208DF80C00CDF80080CDE936
:105360000156206801230279606801784A48FBF7FA
:105370007FFC002837D13220FBF77AF9C0208DF866
:105380000C00A07AC00702D0E0208DF80C00CDF808
:105390000080CDE901562068C1460123027960688A
:1053A00001783D48FBF764FC00286ED1607C20B199
:1053B00002208DF80C0002E019E08DF80C70CDE9A8
:1053C0000095B046CDF8088020684E460123427C07
:1053D000606801783048FBF74BFC20B98DF80C7001
:1053E000CDF8088000E050E0CDE9006543E00420FE
:1053F0008DF80C00CDF80080CDE90156206801231E
:105400000279606801782448FBF732FCE8BBA07C95
:10541000A0B9A07AC00711D05FF060008DF80C0031
:10542000CDF80080CDE9015620680123027960683B
:1054300001781948FBF71CFC38BB01E04020EDE780
:105440003220FBF715F9607C10B18DF80C5001E0AB
:105450008DF80C70CDF80080CDE90156206801234D
:10546000427C606801780C48FBF702FC68B9094887
:1054700010308DE86100206801234279606801786E
:105480000548FBF7F5FB002800D0504604B0BDE806
:10549000F08700003C000020F40300202DE9F047D5
:1054A000394C82468AB094F824000F4620B100207F
:1054B00000F044F9012600E0002607A8FFF7A4FC4D
:1054C00006A8FFF761FC09A8FFF7D8FC08A8FFF7BA
:1054D000F1FC94F80A9094F81080002500223946D7
:1054E0005046FFF775F910B16D1C022DF6DB022D49
:1054F0001AD00025012203A96846FFF769F910B107
:105500006D1C022DF6DB022D0ED003A93846FEF7E6
:105510001BF9C7B269465046FFF754FB10F0FF0F66
:105520004FF0000502D002E0002503E001250FB98D
:1055300045F00205FF2020726072E0724FF6FF71A5
:10554000E181A072207401202073BDF81C0000F0DE
:105550003FF99DF8180000F019F8BDF8240000F09C
:10556000B1F9BDF8200000F0EDF9484600F036FA38
:105570004046FFF7DFFB16B1012000F0DFF80AB06C
:105580002846BDE8F08700003C0000207FB51B4C9A
:105590004FF0FF35A17A51B3022806D0042806D077
:1055A00008280ED0102822D10DE0002000E00820AD
:1055B0008DF80C00607A9DF80C10B0EBD10F04D080
:1055C00006E01020F4E71820F2E7002004B070BDD8
:1055D0004FF48072012103A88DE8070020680123A1
:1055E000C279606801780648FBF742FB08B128469B
:1055F000ECE79DF80C00C0086072E6E73C00002074
:10560000F40300202DE9FF474A4C0746A07CB8422E
:1056100003D1002004B0BDE8F08746484FF0FF3AC0
:105620004FF48075D0E900104FF0010803AECFB3FE
:105630000096CDE901850A79017801233E48FBF700
:10564000E9F9002871D19DF80C00CDE9006820F03F
:105650002000A9468DF80C00CDF80890206845463A
:1056600001230279606801783348FBF701FBE8BB4E
:105670000320FAF7FDFF02208DF80C0094F82200B9
:1056800010B182208DF80C0094F8230028B19DF809
:105690000C0040F030008DF80C00CDE90065CDF82D
:1056A000089039E0FFE7CDE9006802950A790178B2
:1056B00001232148FBF7AEF9C0B9A07AC0079DF8D5
:1056C0000C0002D040F0200001E020F02000A946AC
:1056D0008DF80C0035468DE82003206801230279FF
:1056E000606801781448FBF7C3FA00E01DE0E0B9F8
:1056F0000320FAF7BDFF94F8220000B180208DF856
:105700000C0094F8230028B19DF80C0040F0300004
:105710008DF80C008DE8200320680123C27D6068AD
:1057200001780548FBF7A4FA08B1504672E7A77460
:105730006FE700003C000020F40300202DE9FF414A
:10574000214C94F82410814224D000264FF4807715
:10575000012530B394F8250000B3002000F08CFC44
:105760000020FFF74FFFE08C00F0ECF88DF80C60A4
:1057700003A88DE8A1006068012323220178134863
:10578000FBF776FA84F82450012000F075FC00BF86
:10579000FFF7A4FD002004B0BDE8F0814FF0FF301A
:1057A000F9E7002000F068FC207C8DF80C0003A8CD
:1057B0008DE8A10060680123232201780348FBF7EC
:1057C00057FA84F82460E3E73C000020F40300204B
:1057D0007FB51D4C4FF0FF35A17A69B3FA2809D087
:1057E000B0F5FA7F08D0B0F57A7F0FD0B0F5FA6F38
:1057F00022D10DE0002000E008208DF80C00207A76
:105800009DF80C10B0EBD10F04D006E01020F4E7A7
:105810001820F2E7002004B070BD4FF4807201211F
:1058200003A88DE807002068012382796068017869
:105830000648FBF71DFA08B12846ECE79DF80C0076
:10584000C0082072E6E700003C000020F4030020BE
:105850007FB51A4C054694F82300A84202D10020D7
:1058600004B070BD0DB1302000E000208DF80C00B8
:10587000A07C28B19DF80C0040F002008DF80C00CF
:1058800094F8220028B19DF80C0040F080008DF8BB
:105890000C004FF48072012103A88DE807002068F6
:1058A0000123C27D606801780548FBF7E1F910B17A
:1058B0004FF0FF30D4E784F82350D0E73C000020BD
:1058C000F40300207FB51D4C4FF0FF35A17A79B36A
:1058D0000121BC2802D38DF80C1012E0622801D3FC
:1058E00002200CE02A2801D3032008E0142801D369
:1058F000042004E00A2801D3052000E006208DF8EA
:105900000C00E07A9DF80C20904202D1002004B0F7
:1059100070BD03AA4FF480700092CDE90110206899
:1059200001238278606801780548FBF7A1F908B186
:105930002846ECE79DF80C00E072E7E73C00002009
:10594000F40300202DE9FF41224D04464FF0FF37BC
:10595000A87A78B395F8240060BB287D4FF47A7656
:1059600048B164B1282C03D8E0B2FFF7B3FB2EE0B6
:105970000020FFF7AFFB042C05D2042406E0002032
:10598000FFF7A8FBF9E7B44200D93446B6FBF4F0C0
:10599000401E8DF80C004FF48072012103A88DE8A1
:1059A0000700286801234278686801780A48FBF7F5
:1059B0005FF918B1384604B0BDE8F0819DF80C00DD
:1059C000401CB6FBF0F0E8814008FFF77BFF0020A9
:1059D000F1E700003C000020F40300202DE9FF4720
:1059E000054610F0700F4FF001074FF0000602D08F
:1059F0008DF80C7006E015B18DF80C6002E04020C7
:105A00008DF80C000DF10C094FF480784946284CB4
:105A10008DE8820120680123427D60680178254875
:105A2000FBF726F94FF0FF3A80BB9DF80C0020F001
:105A3000400020738DF80C60680602D404208DF8B5
:105A40000C00A80605D49DF80C0040F002008DF86B
:105A50000C00E80605D49DF80C0040F001008DF81C
:105A60000C00280705D49DF80C0040F038008DF894
:105A70000C00CDF80090CDE9017820680123827DEB
:105A8000606801780B48FBF7F3F820B1A672504626
:105A900004B0BDE8F08725B1082D02D00020FFF743
:105AA000D7FEA57226753220FAF7E2FD0020EFE757
:105AB0003C000020F40300202DE9FF4115000E46B4
:105AC0004FF0FF3729D0174CA17A31B3010A8DF876
:105AD0000C10C0B28DF80D008119606842899142A6
