:020000040800F2
:100000009819002021020008912B00080321000804
:10001000DD2A000817060008393800080000000033
:10002000000000000000000000000000890100083E
:100030001906000800000000CD010008C5320008C4
:100040003B0200083B0200083B0200083B0200089C
:100050003B0200083B0200083B0200083B0200088C
:100060003B0200083B0200083B0200083B0200087C
:100070003B0200083B0200083B0200083B0200086C
:100080003B0200083B0200083B0200083B0200085C
:100090003B0200083B0200083B0200083B0200084C
:1000A0003B020008513300083B0200083B020008F5
:1000B0003B0200083B0200083B0200083B0200082C
:1000C0003B0200083B0200083B0200083B0200081C
:1000D0003B020008213800082D3800083B020008C8
:1000E0003B0200083B0200083B02000800F002F857
:1000F00000F03AF80AA090E8000C82448344AAF188
:100100000107DA4501D100F02FF8AFF2090EBAE885
:100110000F0013F0010F18BFFB1A43F0010318473B
:10012000F88E0000188F0000103A24BF78C878C1FC
:10013000FAD8520724BF30C830C144BF04680C60ED
:10014000704700000023002400250026103A28BF35
:1001500078C1FBD8520728BF30C148BF0B60704739
:100160001FB51FBD10B510BD00F020FA1146FFF7F6
:10017000F7FF04F01BFF00F03EFA03B4FFF7F2FFB5
:1001800003BC00F041FA0000224B19680868B0E88F
:10019000F00F80F30988BFF36F8F4FF0000080F3FA
:1001A00011884EF00D0E70470000000006480068F0
:1001B000006880F3088862B661B6BFF34F8FBFF363
:1001C0006F8F00DF00BF00BF08ED00E0EFF3098094
:1001D000BFF36F8F0F4B1A6820E9F00F106008B55E
:1001E0004FF0500080F31188BFF34F8FBFF36F8F34
:1001F00006F028FB4FF0000080F31188BDE80840AE
:1002000019680868B0E8F00F80F30988BFF36F8FB2
:10021000704700BF88000020EFF3058070470000A2
:100220000948804709480047FEE7FEE7FEE7FEE78A
:10023000FEE7FEE7FEE7FEE7FEE7FEE704480549C6
:10024000054A064B704700004F330008ED000008D8
:100250009813002098190020981500209815002068
:1002600010B54C1084EA530404D54042C1F100019A
:1002700038BF491E1B4204D55242C3F1000338BFA8
:100280005B1E00F0E6F814F0804F04D04042C1F14C
:10029000000138BF491E14F0004F04D05242C3F190
:1002A000000338BF5B1E10BD40EA010310B59B0779
:1002B0000FD1042A0DD310C808C9121F9C42F8D0D0
:1002C00020BA19BA884201D9012010BD4FF0FF3081
:1002D00010BD1AB1D30703D0521C07E0002010BD97
:1002E00010F8013B11F8014B1B1B07D110F8013B23
:1002F00011F8014B1B1B01D1921EF1D1184610BD04
:10030000032A40F2308010F0030C00F0158011F841
:10031000013BBCF1020F624498BF11F801CB00F819
:10032000013B38BF11F8013BA2F1040298BF00F86D
:1003300001CB38BF00F8013B11F0030300F025802A
:10034000083AC0F0088051F8043B083A51F804CB51
:10035000A0E80810F5E7121D5CBF51F8043B40F817
:10036000043BAFF30080D20724BF11F8013B11F822
:1003700001CB48BF11F8012B24BF00F8013B00F866
:1003800001CB48BF00F8012B704710B5203AC0F0F0
:100390000B80B1E81850203AA0E81850B1E8185086
:1003A000A0E81850BFF4F5AF5FEA027C24BFB1E8C3
:1003B0001850A0E8185044BF18C918C0BDE8104034
:1003C0005FEA827C24BF51F8043B40F8043B08BF3D
:1003D0007047D20728BF31F8023B48BF11F8012B04
:1003E00028BF20F8023B48BF00F8012B704702F0FD
:1003F000FF0343EA032242EA024200F0AEB84FF0A4
:10040000000200B5134694469646203922BFA0E864
:100410000C50A0E80C50B1F12001BFF4F7AF090770
:1004200028BFA0E80C5048BF0CC05DF804EB890061
:1004300028BF40F8042B08BF704748BF20F8022BA4
:1004400011F0804F18BF00F8012B704770477047BC
:10045000704753EA020C00F069802DE9F04B4FF031
:100460000006002B1FBFB3FA83F503FA05F424FA44
:1004700005F65E4012BF1643B2FA82F502FA05F4A1
:10048000C5F120051EBF22FA05FC44EA0C04203504
:1004900056EA044C4FEA144418BF641C4FF000089D
:1004A0004FF00009904271EB030C39D3002919BFBA
:1004B000B1FA81F701FA07F6B0FA80F700FA07F609
:1004C000C7F120071EBF20FA07FC46EA0C062037BA
:1004D000B6FBF4FCA7EB0507103F07F01F0BCBF1B1
:1004E00020060CFA0BFB2CFA06F644BFB346002696
:1004F000202FA4BF5E464FF0000B5BEA060C08BF3E
:100500004FF0010B19EB0B09ABFB027C48EB060823
:10051000C01B06FB02CC0BFB03CC71EB0C01C1E74B
:100520000B46024641464846BDE8F08B13B54FF0F6
:1005300000004FF00001AFF30080BDE81C407047A1
:1005400010B500F02BF8006810BD10B5044600F09F
:1005500025F8046010BD4FF000020429C0F012809D
:1005600010F0030C3FF44DAFCCF1040CBCF1020FC2
:1005700018BF00F8012BA8BF20F8022BA1EB0C013B
:10058000FFF73FBF5FEAC17C24BF00F8012B00F8F2
:10059000012B48BF00F8012B70470000004870474E
:1005A0003813002000487047381300207546FFF7C5
:1005B000F9FFAE4605006946534620F00700854620
:1005C00018B020B5FFF73AFEBDE820404FF0000616
:1005D0004FF000074FF000084FF0000B21F007012B
:1005E000AC46ACE8C009ACE8C009ACE8C009ACE86E
:1005F000C0098D46704710B50446AFF30080204611
:10060000BDE81040FFF7B9BD01491820ABBEFEE7B9
:10061000260002007047FEE7704772B6FEE710B58D
:1006200090F821100022022905D00421816380F86E
:100630002020012010BD01680B6823F00E030B6021
:1006400001680B6823F001030B6090F84030C46B25
:10065000012101FA03F3636080F8211080F8202063
:10066000104610BD10B590F821100024022903D0C7
:100670000421816301243DE001680A6822F00E0232
:100680000A6001680A6822F001020A601A4A0168D9
:10069000914201D1012121E0174A1432914201D146
:1006A00010211BE0144A2832914201D1891515E02E
:1006B000114A3C32914201D189140FE00E4A503266
:1006C000914202D14FF4803108E00B4A64329142EA
:1006D00002D14FF4801101E04FF08071064A083AD0
:1006E0005160012180F82110002180F82010416B19
:1006F00001B18847204610BD0800024070B504468D
:1007000000F004F90546601C02D004480078044457
:1007100000F0FCF8401BA042FAD370BD7800002026
:100720002DE9F84FDFF8B8910024A9F1040B234616
:100730000F2709F1040AABF1040EC9E00125A54019
:100740002A40AA427DD1674ED1F804C0ACEB06081E
:10075000B44532D014DCBCF1030F3AD009DCBCF153
:10076000000F2AD0BCF1010F1CD0BCF1020F31D117
:100770001DE0BCF1110F17D0BCF1120F2AD119E006
:10078000B8F5881F19D006DCB8F5803F15D0B8F54C
:10079000801F1FD111E0B8F5001F0ED0B8F5041F5F
:1007A00018D10AE0CB6815E0CB681B1D12E0CB68BE
:1007B00008330FE0CB680C330CE08B682BB1012BB6
:1007C0004FF0080303D0456104E0042302E0056113
:1007D00000E00023FF2A01D8064601E000F10406EC
:1007E0004FEA840501D9A5F12005D6F8008007FA63
:1007F00005FC28EA0C0803FA05F548EA0508C6F8DE
:1008000000804D68ED0062D5374DAE6946F00106B7
:10081000AE61AD6924F0030605F001050095334D86
:1008200006EB050CDCF80850A607360F07FA06F8A9
:1008300025EA0805DFF8B880404503D14FF00008ED
:1008400017E044E0DFF8AC80404502D14FF00108EA
:100850000FE0DFF8A480404502D14FF0020808E025
:10086000DFF89880404502D14FF0030801E04FF0D7
:10087000040808FA06F848EA0508CCF808804D682C
:10088000D9F80060ED024D4601D5164300E09643CD
:100890002E604D68DAF80060AD02554601D516436A
:1008A00000E096432E604D68DBF80060AD035D46C6
:1008B00001D5164300E096432E604D68DEF80060D7
:1008C000ED03754601D5164300E096432E60641C87
:1008D0000D682A46E5407FF431AFBDE8F88F00008F
:1008E0000804014000001110001002400000014007
:1008F00000080140000C01400010014000140140BC
:100900000AB1016170470904FBE7000001488068F3
:10091000704700007800002070B5040025D094F8DE
:100920003D00002520B984F83C50204600F07EFAB6
:10093000242084F83D002068016821F00101016055
:100940002068016841F4004101602068016821F4D9
:100950000041016000F014FC4D4A6168914201D8E9
:100960004C4900E04C49884201D2012070BD4B49FE
:100970002368B0FBF1F15E6826F03F060E435E602F
:100980006368934206D94FF4967359434FF47A73D0
:10099000B1FBF3F12368491C1E6A26F03F06314380
:1009A00019626168914210D84900401EB0FBF1F213
:1009B000521CC2F30B02042A01D2042022E0B0FB35
:1009C000F1F0401CC0F30B001CE0A268F2B301EB95
:1009D000C10303EB0116431EB3FBF6F35B1C43F4A8
:1009E00080431B0549D092B301EBC10202EB011118
:1009F000401EB0FBF1F0401CC0F30B0040F48040FF
:100A000040F400402168CA694CF6FF739A431043D2
:100A1000C861D4E9071001432068026822F0C002CF
:100A200011430160D4E9030101432068826848F260
:100A3000FF339A4311438160D4E9050108432168DB
:100A4000CA6822F0FF021043C86001E00EE016E021
:100A50002068016841F0010101602564202084F8CC
:100A60003D00256384F83E50002070BD01EB410637
:100A7000431EB3FBF6F35B1CB3E70120C2E701EBB7
:100A80004101401EB0FBF1F0401CC0F30B00B7E782
:100A9000A086010080841E0000093D0040420F0036
:100AA0002DE9FF4F83B00025DDE910799A46934682
:100AB0000446DDF848800095FFF728FF064694F8C5
:100AC0003D0020287CD11923012288492046009628
:100AD00001F02EFC0028F5D194F83C0001286FD0DD
:100AE000012084F83C0020680168C90703D101682F
:100AF00041F0010101602068016821F4006101609A
:100B0000222084F83D00402084F83E00256467627E
:100B1000A4F82A90608D20857548E062CDE90086B2
:100B200053465A462046049901F004FB00287CD124
:100B3000208DDFF8C091202768B1012814D0022849
:100B4000206801681ED041F480610160206841691D
:100B500080690090BCE0206841698169009101686A
:100B600041F400710160B3E02068016821F4806104
:100B7000016072B62068416981690091016841F4A1
:100B800000710AE041F40061016072B620684169B9
:100B900081690091016821F48061016062B697E08B
:100BA000032865D801280CD0022843464FF00002E4
:100BB0004946204600960BD001F0BAFBA8BB0CE0DA
:100BC00091E032464146204601F058FC68BB72E095
:100BD00001F0AEFB48BB72B633E02068016821F437
:100BE0008061016072B620680069616A0870606A9D
:100BF000401C6062208D401E2085608D401E6085F7
:100C00003D4846F2A8110068B0FBF1F0C0EBC0000F
:100C100000EB80000090401E009007D020684069E3
:100C2000C04340070DD50098F5E727E044F8305F52
:100C30006773A573206940F02000206162B62573B8
:100C40001CE02068016841F40071016020680069BF
:100C5000616A0870606A401C6062218D491E2185AE
:100C6000618D491E618562B621680969017026E0BF
:100C700032464146204601F001FC18B1012007B080
:100C8000BDE8F08F20680069616A0870606A401CE6
:100C90006062208D401E81B22185608D401E60857E
:100CA00020684269D243520712D4032903D1016854
:100CB00021F48061016020680069616A0870606ADF
:100CC000401C6062208D401E2085608D401E608526
:100CD000208D00287FF464AF84F83D7084F83E5086
:100CE00084F83C50CBE70220C9E700000200100066
:100CF0000000FFFF04000100840000202DE9FF4FE9
:100D000083B09A46DDE9119793460446DDF84080AA
:100D1000FFF7FCFD054694F83D0020287FD11923FC
:100D2000012240492046009501F002FB002876D1BF
:100D300094F83C00012872D0012084F83C0020681F
:100D40000168C90703D1016841F001010160206811
:100D5000016821F400610160212084F83D004020F9
:100D600084F83E0000262664C4F82480A4F82A9063
:100D7000608D20852C48E062CDE9007553465A46C7
:100D80002046049901F054FA70B930E02A463946F9
:100D9000204601F0ABFB58B1206C042804D1206838
:100DA000016841F400710160012007B0BDE8F08FD7
:100DB000606A216800780861606A401C6062218D69
:100DC000491E89B22185628D521E6285226853694F
:100DD000DB435B070BD469B100781061606A401C8B
:100DE0006062208D401E2085608D401E6085208DB4
:100DF0000028CBD12A463946204601F06DFA00285A
:100E0000CAD154F83D0B016841F400710160202003
:100E100004F81E09E67766770020C6E7FFE70220A0
:100E2000C3E70000020010000000FFFF10B586B00D
:100E300000210091019102910391006810498842BC
:100E40001BD1104CA06940F00800A061A069694660
:100E500000F0080004904FF44060009012200190D0
:100E6000032003900848FFF75BFCE06940F4800032
:100E7000E061E06900F48000049006B010BD00005D
:100E80000058004000100240000C014002488168F8
:100E9000027811448160704778000020074810B53F
:100EA000016841F010010160032000F0A1F80F205B
:100EB00000F006F800F04AF8002010BD00200240C3
:100EC00030B505461C4887B0816941F400618161F5
:100ED000806906A900F40060009001A800F030F9D4
:100EE00000F05EF91549164AB0FBF1F11548491EAC
:100EF0000260416040F2E7320021C0E903218160D5
:100F0000816100F049FB040012D10E4800F084FB1F
:100F100004000DD1192000F03DF8102D07D2002259
:100F20002946192000F044F80748056000E0012434
:100F300007B0204630BD00000010024040420F00C4
:100F4000002C0140F00500207C0000200F4808B56F
:100F5000816941F001018161816901F00101009124
:100F6000C16941F08051C161C069002200F0805028
:100F700000900F21901E00F01BF80548416821F0F9
:100F8000E06141F00071416008BD000000100240C6
:100F900000000140002809DB00F01F020121914000
:100FA0004009800000F1E020C0F800117047000007
:100FB000F0B40E4B1B680C46C3F30223C3F10705C4
:100FC000042D00D90425191D072901D2002300E0B2
:100FD000DB1E012606FA05F1491E214099409E407C
:100FE000761E16403143F0BC02F094BC0CED00E0DC
:100FF000064900F0070208684FF6FF03184040EA70
:101000000220034A10430860704700000CED00E026
:101010000000FA052DE9F0470F46050061D0434E68
:10102000306800F00700B84209D2306820F00700AD
:1010300038433060306800F00700B84251D128686A
:101040003B4C810712D5400703D5606840F4E0604F
:1010500060602878000703D5606840F460506060E5
:101060006068A96820F0F000084360602878C00735
:1010700028D06868012810D02168022810D089077C
:1010800000292EDA616821F0030101436160FFF756
:101090003DFC804641F288390DE021688903EFE785
:1010A0008901EDE7FFF732FCA0EB0801494502D9C1
:1010B0000320BDE8F0876068696800F00C00B0EBC1
:1010C000810FEFD1306800F00700B8420BD93068CB
:1010D00020F0070038433060306800F00700B84265
:1010E00001D00120E5E72878400705D56068E96868
:1010F00020F4E060084360602878000706D5606847
:10110000296920F4605040EAC100606000F058F89E
:101110006168084AC1F30311515CC8400649086080
:1011200006480068FFF7CCFE0020C2E7002002401E
:1011300000100240E88E0008840000207C0000209F
:101140000F2202600C4A536803F0030343605368A4
:1011500003F0F0038360536803F4E063C3605268F4
:101160004FF4E06303EAD20202610448006800F031
:101170000700086070470000001002400020024095
:101180000448054900684968044AC1F30221515CDA
:10119000C84070478400002000100240F88E00080C
:1011A0000448054900684968044AC1F3C221515CFA
:1011B000C84070478400002000100240F88E0008EC
:1011C0000E4A51680E4801F00C03042B11D0082B75
:1011D0000FD10C48C1F38343C903C05C0AD55168E1
:1011E000084AC1F34041921E515C054A5043B0FB8E
:1011F000F1F0704704494843704700000010024076
:1012000000127A00D88E000800093D002DE9F84F41
:10121000040070D02078C04DC00749D06868C0F382
:101220008100012807D06868C0F38100022809D135
:101230006868C00306D52868800339D5606800282F
:10124000E7D035E06068B0F5803F0BD010B1B0F565
:10125000A02F11D0286820F480302860286820F45E
:10126000802002E0286840F480302860606890B1F7
:10127000FFF74CFB06460AE0286840F4802028600F
:10128000F0E700BFFFF742FB801B642873D8286893
:101290008003F7D50CE0FFF739FB064605E000BFF9
:1012A000FFF734FB801B6428F0D828688003F7D44C
:1012B00020789A4E80074FF001094FF0000839D589
:1012C000686810F00C0F07D06868C0F3810002282E
:1012D00009D16868C00306D42868800714D520693E
:1012E000012808D110E02069B0B1C6F80090FFF7DE
:1012F0000DFB074605E00AE1FFF708FBC01B0228CB
:10130000C4D828688007F7D52868616920F0F800FC
:1013100040EAC10028600DE0C6F80080FFF7F6FA49
:10132000074604E0FFF7F2FAC01B022823D828681A
:101330008007F7D4207800072CD57948A169D9B166
:10134000C0F80090FFF7E2FA074604E0FFF7DEFA84
:10135000C01B02280FD8686A8007F7D571484FF480
:10136000FA510068B0FBF1F0009000BF0098411EF8
:101370000091FAD20EE080E0C0F80080FFF7C6FAD4
:10138000074604E0FFF7C2FAC01B022875D8686A56
:101390008007F7D42078400760D5E8690027C000AF
:1013A00008D4E86940F08050E861E869012700F05E
:1013B000805000905C480168C90513D401688346D9
:1013C00041F480710160FFF7A1FA824606E000BF98
:1013D000FFF79CFAA0EB0A0064284ED8DBF8000067
:1013E000C005F5D5E06801280AD008B1052813D05A
:1013F000286A20F001002862286A20F0040002E038
:10140000286A40F001002862E06841F2883B98B108
:10141000FFF77CFA82460BE0286A40F0040028625D
:10142000EEE700BFFFF772FAA0EB0A0159455AD860
:10143000286A8007F6D50CE0FFF768FA824605E0D7
:10144000FFF764FAA0EB0A0159454CD8286A8007D7
:10145000F6D41FB1E86920F08050E861E06988B3F4
:101460006968C1F38101022944D00228C6F860806E
:1014700004D0FFF74BFA044638E034E0FFF746FAB1
:10148000074604E0FFF742FAC01B02282BD8286861
:101490008001F7D4206AB0F5803F05D16868A16863
:1014A00020F4003008436860D4E908010843696803
:1014B00021F4741108436860C6F86090FFF726FABB
:1014C000044606E025E000BFFFF720FA001B0228D3
:1014D00009D828688001F7D51BE000BFFFF716FA8E
:1014E000001B022802D90320BDE8F88F286880017C
:1014F000F4D40EE00128F7D06868226A00F4803145
:10150000914204D1616A00F47010884201D0012038
:10151000EAE70020E8E70000001002400000424235
:1015200080044242840000200070004070477047F1
:1015300070B590F83C20012A26D0012480F83C4068
:10154000022280F83D2003685A689D6822F07006E8
:101550000A6832435A600D4B02689A4208D0B2F1D1
:10156000804F05D00A4B9A4202D00A4B9A4204D1CE
:10157000496825F080031943916080F83D400021BF
:1015800080F83C10084670BD022070BD002C014060
:10159000000400400008004010B5040003D094F897
:1015A0003D0010B107E0012010BD002084F83C0090
:1015B000204600F01FF8022084F83D00211D20681D
:1015C00001F0CCFE012084F8460084F83E0084F847
:1015D0003F0084F8400084F8410084F8420084F819
:1015E000430084F8440084F8450084F83D0000205E
:1015F00010BD000008B50068B0F1804F08D1054863
:10160000C16941F00101C161C06900F001000090B1
:1016100008BD00000010024090F83D10012901D0E3
:1016200001207047022180F83D100168CA6842F02D
:101630000102CA6000680B49884208D0B0F1804FAF
:1016400005D00949884202D00849884204D18168FE
:1016500001F00701062903D0016841F00101016092
:1016600000207047002C01400004004000080040AA
:1016700070B5044690F83C000025012817D00126DB
:1016800084F83C60022084F83D002068826822F0E3
:10169000770222F47F4282600868502838D00DDC3F
:1016A00020284FD005DC90B3102811D14AE0022049
:1016B00070BD302846D040280AD13BE060282FD0AA
:1016C00070280DD0B0F5805F03D0B0F5005F12D068
:1016D000012584F83D60002084F83C00284670BD58
:1016E000CB68D1E90121206801F081FE2068816882
:1016F00041F0770109E0CB68D1E90121206801F0D0
:1017000076FE2068816841F480418160E1E719E05C
:10171000CA684968206801F01FFF5021206806E070
:10172000CA684968206801F028FF6021206801F03C
:1017300068FECEE7CA684968206801F00DFF4021C5
:101740002068F4E7226801461046F0E72DE9F041F1
:101750000D46040003D094F83D0018B108E00120C4
:10176000BDE8F081002084F83C00204600F040F8FD
:10177000022084F83D002068816844F2070291430A
:101780008160211D206801F0E9FD2268906891695F
:10179000166A2B68AF69034340F20330814341EA84
:1017A0000721A868EF6908434FF6FC418843E968C0
:1017B00040EA0720014328692F6A000140EA073008
:1017C000084369686D6926F0220646EA0515294333
:1017D00093602268906154F8460B0162012004F87E
:1017E0001F09E0752076E0762077A0750020B7E726
:1017F00000B585B0002100910191029103911A4B2F
:1018000002681A48C0219A4213D1C26942F002020A
:10181000C261C26902F002020492826942F00402CB
:1018200082618069009100F00400049069461048CC
:1018300015E0104B9A4214D1C26942F00402C26111
:10184000C26902F004020492826942F008028261D5
:101850008069009100F00800049069460648FEF790
:101860005FFF05B000BD0000000400400010024012
:101870000008014000080040000C014070B590F8DD
:101880003E60044690F83F5090F8423090F8432074
:10189000022021B104290ED0012E1BD114E0012E0B
:1018A00018D1012B16D184F83E0084F842000122A1
:1018B0000021206820E0012D0CD1012A0AD184F8F2
:1018C0003F0084F8430014E0012D03D1012B01D126
:1018D000012A01D0012070BD84F83E0084F83F0049
:1018E00084F8420084F8430001220021206801F0BE
:1018F00071FD01220421206801F06CFD206801685F
:1019000041F001010160002070BD70472DE9F041F8
:1019100004460068C66805694FF00007A90713D59B
:10192000B10711D5F91E0161012020772068806977
:101930008007204602D0FFF7E8FF04E000F0ACF893
:10194000204600F03EF92777680716D5700714D5B2
:1019500021686FF004000861022020772068806908
:1019600010F4407F204602D0FFF7CFFF04E000F0E4
:1019700093F8204600F025F92777280715D530077A
:1019800013D521686FF008000861042020772068D3
:10199000C0698007204602D0FFF7B7FF04E000F0DF
:1019A0007BF8204600F00DF92777E80616D5F006FB
:1019B00014D521686FF01000086108202077206896
:1019C000C06910F4407F204602D0FFF79EFF04E07C
:1019D00000F062F8204600F0F4F82777E80708D016
:1019E000F00706D021686FF001000861204600F082
:1019F00037F9280608D5300606D521686FF0800033
:101A000008612046FFF792FD680608D5700606D5E6
:101A100021686FF040000861204600F02BF9A8060D
:101A20000AD5B00608D521686FF02000086120466D
:101A3000BDE8F041FFF77BBDBDE8F08100B585B0A2
:101A4000002100910191029103910068B0F1804F53
:101A500019D10E48816941F00401816180696946AC
:101A600000F00400049003200090022001900390F5
:101A70000748FEF755FE0021064800F0A3F80421B0
:101A8000044800F09FF805B000BD000000100240BF
:101A90000008014088040020704770B5044690F8A3
:101AA0003C0000260D4601280FD0012084F83C00A0
:101AB0006AB1042A1DD0082A2FD00C2A3FD0012653
:101AC000002084F83C00304670BD022070BD2068C4
:101AD00001F0A0FC2068816941F008018161206863
:101AE000816921F004018161206881692A691143BB
:101AF00011E0206801F0B6FC2068816941F40061C2
:101B000081612068816921F4806181612068816937
:101B10002A6941EA02218161D2E7206801F0CEFC06
:101B20002068C16941F00801C1612068C16921F0E4
:101B30000401C1612068C1692A69114311E020686C
:101B400001F0E8FC2068C16941F40061C1612068CE
:101B5000C16921F48061C1612068C1692A6941EAD3
:101B60000221C161ACE710B5040003D094F83D0038
:101B700010B107E0012010BD002084F83C00204691
:101B800000F01EF8022084F83D00211D206801F0BD
:101B9000E5FB012084F8460084F83E0084F83F000D
:101BA00084F8400084F8410084F8420084F843003F
:101BB00084F8440084F8450084F83D00002010BDFE
:101BC0007047704710B50446022249B104290ED06F
:101BD000082913D094F84100012816D0012010BD27
:101BE00094F83E000128F9D184F83E200FE094F8E3
:101BF0003F000128F2D184F83F2008E094F840002B
:101C00000128EBD184F8402001E084F84120012232
:101C1000206801F0DFFB0F492068884203D1426C45
:101C200042F4004242642068884208D0B0F1804FFC
:101C300005D00949884202D00849884204D1816808
:101C400001F00701062903D0016841F0010101609C
:101C5000002010BD002C014000040040000800409E
:101C600000680349884201D1FFF710B970470000AE
:101C7000002C01407047704770470000F8B50168BC
:101C800004460868CA684B6910F00F0F4FF0000552
:101C900059D003F0010602F49077374365D0C107AD
:101CA00005D0D10503D5616C41F0010161644107A4
:101CB00005D5D90703D0616C41F002016164810749
:101CC00005D5D90703D0616C41F0040161640107B7
:101CD00007D502F02001314303D0616C41F00801C7
:101CE0006164616C00293AD0800604D5900602D563
:101CF000204601F083FC20684069616CC0F38010CD
:101D0000090700D460B3204601F051FC2068406907
:101D1000400621D52068143050E8001F21F0400112
:101D200040E80012002AF5D1E06BA8B16D4941638B
:101D3000E06BFEF797FC002811D0E06B416B01B01F
:101D4000BDE8F040084783060FD593060DD5204621
:101D5000BDE8F84001F052BC2046FFF78DFFF8BD0A
:101D60002046FFF789FF6564F8BD266B2023012E0E
:101D70007CD1C6067AD5D60678D508684868009022
:101D800048694FF00206400640D5E16B086840689C
:101D90000004000CE8D0A28D8242E5D9E085886974
:101DA00020282DD020680C3050E8001F21F48071CD
:101DB00040E80012002AF5D12068143050E8001FD6
:101DC00021F0010140E80012002AF5D1206814300A
:101DD00050E8001F21F0400140E80012002AF5D130
:101DE00084F84230256320680C3050E8001F21F051
:101DF000100140E80012002AF5D1E06BFEF70FFC5D
:101E00006663A08DE18D401A81B22AE0A08DE18D3C
:101E1000401A81B2E08D0028A6D00029A4D0226803
:101E20000C3252E8000F20F4907042E80007002FB7
:101E3000F5D12068143050E8002F22F0010240E86C
:101E40000027002FF5D184F84230256320680C303C
:101E500050E8002F22F0100240E80023002BF5D1BB
:101E600066632046FFF707FFF8BDFFE705062BD5A1
:101E7000150629D594F841002128F5D1A068B0F5C0
:101E8000805F01D12069B0B1206A411C21622168C4
:101E900000784860E08C401E0004000CE084E3D130
:101EA0002068C16821F08001C1602068C16841F0EC
:101EB0004001C160D8E7206A0088C0F3080048608C
:101EC000206A801C2062E5E74006CDD55006CBD5C0
:101ED000CA68204622F04002CA6084F8413000F00F
:101EE0000FF9C1E79F35000870B5040004D094F8DD
:101EF0004100002510B106E0012070BD84F840507B
:101F0000204600F023F8242084F841002068C168AE
:101F100021F40051C160204601F0D2FB2068016924
:101F200021F4904101612068416921F02A01416159
:101F30002068C16841F40051C1606564202084F8C4
:101F4000410084F842006563002070BD70B586B022
:101F5000002400940194029403942E4E03682E49A9
:101F6000022003222D4DB34226D18B6943F48043D6
:101F70008B618B6903F4804304938B6943F0040302
:101F80008B618969039201F0040104910102CDE99A
:101F9000001069462846FEF7C3FB2815CDE900046A
:101FA000694628460294FEF7BBFB00220521252046
:101FB000FEF7FEFF252028E0194EB34227D1CB695A
:101FC00043F40033CB61CB6903F4003304938B6992
:101FD00043F004038B618969039201F004010491C9
:101FE0000421CDE9001069462846FEF799FB082038
:101FF000CDE90004694628460294FEF791FB0022D1
:1020000005212620FEF7D4FF2620FEF7C3FF06B0E9
:1020100070BD00000038014000100240000801407F
:102020000044004090F84230202B01D0022070473D
:1020300021B11AB10023036301F09EBB0120704758
:10204000054910B5884203D10448807801F0F6FBB9
:10205000BDE8104001F02CB9A805002000000020C8
:102060002DE9F843044690F84100984616460D467F
:10207000202802D00220BDE8F88385B17EB100207F
:102080006064212084F84100FEF740FCA68481466C
:10209000E684A0682027B0F5805F02D003E001202D
:1020A000E9E7206910B12E4600250EE000260CE07D
:1020B0008021204601F07BFBA8B9C6B116F8010BC0
:1020C00021684860E08C401EE084E08C4B464FF075
:1020D0000002CDF800800028EAD14FF040012046F0
:1020E00001F065FB40B184F841700320C3E735F887
:1020F000020BC0F30800E3E784F841700020BAE760
:102100007047FEE701684A69D24352050FD46FF465
:1021100080624A61002140F8301F2022427381739F
:10212000026942F00402026101730120704700203D
:10213000704700002DE9F84F0446006889460B9D62
:1021400001689846174641F4806101602068016883
:1021500041F48071016000954FF0011B0022594647
:1021600020460A9B00F0E4F84FF4007A40B1206862
:102170000068C00501D5C4F840A00320BDE8F88F71
:10218000216809F0FE0008612B46284920460A9A7A
:1021900000F016F9F0BB20684169806900902A467A
:1021A00020460A9900F0A2F940B1206C04283AD1E7
:1021B0002068016841F40071016034E0FEB2B8F1BA
:1021C000010F09D02168380A08612A4620460A9979
:1021D00000F08CF90028E8D1206806612A462046E4
:1021E0000A9900F083F90028DFD12068016841F4E2
:1021F0008071016000950022594620460A9B00F03C
:1022000097F80028B3D1216809F0FF0040F00100E1
:10221000086100E007E02B46044920460A9A00F0D6
:10222000CFF80028AAD00120A8E700000200010092
:102230002DE9F843044600680D46DDE9089701687A
:102240009846164641F4807101604B4600224FF0DB
:1022500001112046009700F06BF848B12068006833
:10226000C00502D54FF4007020640320BDE8F88358
:10227000216805F0FE0008613B464A4615492046A4
:1022800000F09EF888B920684169806900903A465C
:102290004946204600F02AF948B1206C042804D1B0
:1022A0002068016841F4007101600120DEE7F5B2A9
:1022B000B8F1010F09D02168300A08613A46494651
:1022C000204600F013F90028E7D1206805610020BE
:1022D000CCE700000200010070B516460D4604462A
:1022E0001EE02046FFF70EFF08B1012070BD681CFC
:1022F00016D0FEF70BFB801BA84200D885B92068DA
:102300004069C04340070BD5002044F8300F20211E
:102310006173A073216941F0200121612073E4E71A
:1023200020684069C0434007DBD4002070BD000036
:102330002DE9F047984617460D460446C1F3074677
:10234000DDF820902AE000BFB8F1FF3F26D0FEF76D
:10235000DDFAA0EB0901414502D8B8F1000F1DD10B
:102360002068012E16D0806925EA00000004000CC8
:1023700012D00020B84211D1002044F8300F2021A3
:102380006173A073216941F0200121612073012054
:10239000BDE8F0874069E7E70120EBE72068012E00
:1023A0000AD0806925EA00000004000C06D0002055
:1023B000B842C9D00020EBE74069F3E70120F7E716
:1023C0002DE9F047984616460D4604464FF00009A1
:1023D0004FF0200AC1F3074723E020684069C0435B
:1023E000400515D42068016841F40071016021683E
:1023F0006FF480604861C4F8309084F83DA084F8A0
:102400003E90216C41F00401216484F83C9021E06D
:10241000701C06D0FEF77AFAA0EB0800B04203D891
:1024200016B1012F1FD021E02068012F15D080693F
:1024300025EA00000004000C18D000BF44F8309FCB
:1024400084F80DA084F80E90216941F020012161EB
:1024500084F80C900120BDE8F087406925EA00006F
:102460000004000CEAD12068406901E0206880691E
:1024700025EA00000004000CAFD1ECE72DE9F041A3
:10248000002590460E460446202728E04069C043B8
:10249000C0060CD454F8301B6FF01000486144F8AB
:1024A00010596777A577206A2062257714E0FEF738
:1024B0002DFAA0EB0800B04200D886B92068406928
:1024C000C04340060BD544F8305F6773A57320699D
:1024D00040F02000206125730120BDE8F0812068D4
:1024E0004169C9434906D1D40020F6E770B51646C4
:1024F0000D4604461EE02046FFF704FE08B1012009
:1025000070BD681C16D0FEF701FA801BA84200D8E7
:1025100085B920684069C04300060BD5002044F807
:10252000300F20216173A073216941F020012161E6
:102530002073E4E720684069C0430006DBD4002034
:1025400070BD00002DE9F74F8EB00CA902A8CDE9AF
:1025500000010BAB03AA09A907A801F0EBFE20B10B
:102560004FF0FF3011B0BDE8F08FBDF80800C00596
:102570007ED5039805F0EEFB6FF01D04214605F0B3
:102580001CFE8246049805F0E5FB214605F015FE89
:102590008146059805F0DEFB214605F00EFE8046DB
:1025A000069805F0D7FB214605F007FE05460121F8
:1025B000504605F002FE0646414605F02BFC074654
:1025C0004FF04041484605F025FC0446294605F0F9
:1025D00021FC394605F04CFA05F01EFA01F052FADA
:1025E0004FF0663B5A463D4B04F03CFF04F000FDC3
:1025F0000E9908600121404605F0DFFD414600903C
:1026000005F008FC07462046494605F003FC39461C
:1026100005F0FEFC4FF07E5105F02AFA05F0FCF9BA
:1026200007460C463046494605F0F4FB0646294667
:10263000009805F0EFFB314605F01AFA05F0ECF9C9
:102640003A46234601F066FC5A46244B04F00AFF42
:1026500004F0CEFC0F9908602946084605F0DAFB25
:1026600007464146084605F0D5FB0646494600E0C8
:1026700031E0084605F0CEFB04465146084605F019
:10268000C9FB214605F0F4F9314605F0C1FC394695
:1026900005F0BEFC05F0C0F906460C46414648462A
:1026A00005F0B8FB07462946504605F0B3FB39460E
:1026B00005F0DEF9012105F080FD05F0ADF93246A7
:1026C000234601F027FC5A46044B04F0CBFE04F0ED
:1026D0008FFC10990860002044E7000066A64C407B
:1026E00038B5684602F054FD08B10A2038BD78209C
:1026F00003F0D4FA08B1012038BD782002F07AFC4A
:1027000008B1022038BD642003F07CFA08B1032030
:1027100038BD01F005FE08B1042038BD1648044656
:1027200002F020FC0546E01C02F01CFC45EAC00556
:10273000A01D02F017FC45EA801080B201F0A2FF54
:1027400008B1052038BD40F2731001F0C1FC08B19A
:10275000062038BD642001F0FDFE08B1072038BD19
:1027600003F032FE08B1082038BD012003F046F91D
:102770000028F9D0092038BD6C00002010B598B0B1
:1027800000201590169015A803F043FB114C1C2255
:102790001149A0626846FDF7F8FD0021684603F084
:1027A00040FB0D49E0611C221C3107A8FDF7EDFD3F
:1027B000002107A803F035FB074920621C223831AD
:1027C0000EA8FDF7E2FD00210EA803F02AFB6062CF
:1027D00018B010BD1400002038820008F0B585B094
:1027E00000252D480095019502950395816941F0DA
:1027F00010018161816901F010010491816941F04A
:1028000020018161816901F020010491816941F019
:1028100004018161816901F004010491816941F041
:102820000801816180691D4E00F0080004900122BA
:1028300042F208013046FEF763F8002244F210012C
:102840003046FEF75DF8164F0122D1023846FEF7FA
:1028500057F80022B1143846FEF752F84FF4C04042
:10286000CDE900050124694602940E48FDF758FFA2
:1028700046F218008DE83100694630460394FDF7B2
:102880004FFF4FF4C0508DE831006946384603943D
:10289000FDF746FF05B0F0BD00100240000C0140FE
:1028A00000080140001001400D4810B50B490160BF
:1028B0000C49416000214FF480428160C0E903125D
:1028C00041618161C1610162FEF726F8002803D0F1
:1028D000BDE81040FDF7A1BE10BD0000005800404B
:1028E00034040020A086010010B58EB000240794A7
:1028F000089409940A940B941C2168460C94FDF7E3
:102900007EFD21484FF08041C0E9001442F20F7172
:10291000C0E9024104618461FEF73EFE08B1FDF7A3
:102920007CFE4FF48050079007A91748FEF7A0FEE1
:1029300008B1FDF772FE1448FFF715F908B1FDF76D
:102940006CFE0B940BA910480C94FEF7F1FD08B136
:10295000FDF763FE6020CDE9000402940022694681
:1029600009480494FFF799F808B1FDF756FE0422D0
:1029700069460548FFF791F808B1FDF74EFE024899
:10298000FFF75CF80EB010BD8804002010B58CB0C5
:1029900024216846FDF733FD0024174809941549A2
:1029A0000A94C0E900144FF6FF71C0E902410461C6
:1029B00084610320CDE900040120CDE902040494E0
:1029C000CDE90540079469460B480894FEF7BEFE22
:1029D00008B1FDF722FE099409A907480A94FEF7F9
:1029E000A7FD08B1FDF719FE3C210348FEF746FF9D
:1029F0000CB010BD00040040D004002010B58CB015
:102A000024216846FDF7FBFC00241748099415496A
:102A10000A94C0E900144FF6FF71C0E90241046155
:102A200084610320CDE900040120CDE9020404946F
:102A3000CDE90540079469460B480894FEF786FEE9
:102A400008B1FDF7EAFD099409A907480A94FEF7C1
:102A50006FFD08B1FDF7E1FD3C210348FEF70EFFD5
:102A60000CB010BD00080040180500200C4810B53F
:102A70000A4901604FF4E1314160002181600C227C
:102A8000C160C0E904128161C161FFF72DFA00281D
:102A900003D0BDE81040FDF7C0BD10BD00380140B7
:102AA000600500200C4810B50A4901604FF4E1317F
:102AB0004160002181600C22C160C0E90412816183
:102AC000C161FFF711FA002803D0BDE81040FDF7FF
:102AD000A4BD10BD00440040A8050020FEE7000092
:102AE0002DE9F04705464FF400062548254F0C46D2
:102AF000B5420ADB012208218046FDF701FF0022D2
:102B000010214046FDF7FCFE0DE0BD420BD3002234
:102B100008218046FDF7F4FE012210214046FDF712
:102B2000EFFE85F00045DFF860804FF400614FF460
:102B30008059B44209DB01224046FDF7E1FE002244
:102B400049464046FDF7DCFE0CE0BC420AD30022B9
:102B50004046FDF7D5FE012249464046FDF7D0FE2E
:102B600084F00044204605F0D5F8084C21684863FD
:102B7000284605F0CFF821688863BDE8F08700009B
:102B8000000C014000008080000801408804002003
:102B9000FEE770B500240021204600F0D5F800259E
:102BA000002000F0F3F86D1CEDB2802DF8D3641C0A
:102BB000E4B2082CEFD370BD10B5064C01225103CE
:102BC0002046FDF79DFE20460122BDE810409103FE
:102BD000FDF796BE000C01402DE9F047144E00248D
:102BE00007464FF080084FF48049751428FA04F224
:102BF0003A4049463046FDF783FE012229463046D9
:102C0000FDF77EFE002229463046FDF779FE641C62
:102C1000E4B2082CEAD3012229463046FDF770FEC3
:102C200029463046BDE8F0470022FDF769BE0000A6
:102C3000000C014070B501220B4D9403214628463B
:102C4000FDF75EFE0122560331462846FDF758FE89
:102C5000002221462846FDF753FE31462846BDE8AE
:102C600070400022FDF74CBE000C014070B50A4DCB
:102C70004FF48044002221462846FDF741FE012200
:102C800051032846FDF73CFE21462846BDE870402A
:102C90000122FDF735BE0000000C014010B50020F8
:102CA0004FF47A720021491C9142FCD3401C90429F
:102CB000F8D3FFF781FFAE2000F057F8D52000F0E1
:102CC00054F8802000F051F8A82000F04EF83F2082
:102CD00000F04BF8D32000F048F8002000F045F851
:102CE000402000F042F8A12000F03FF8C82000F09A
:102CF0003CF8DA2000F039F8122000F036F8812094
:102D000000F033F8CF2000F030F8D92000F02DF893
:102D1000F12000F02AF8DB2000F027F8302000F046
:102D200024F8A42000F021F8A62000F01EF88D2041
:102D300000F01BF8142000F018F8AF2000F015F890
:102D4000BDE81040FFF725BF10B50C4640F0B000BD
:102D500000F00BF8102040EA141000F006F804F020
:102D60000F00BDE81040AFF3008010B50446FFF738
:102D700061FF7820FFF730FF0020FFF72DFF20468E
:102D8000FFF72AFFBDE81040FFF770BF10B50446FB
:102D9000FFF750FF7820FFF71FFF4020FFF71CFFD1
:102DA0002046FFF719FFBDE81040FFF75FBF2DE990
:102DB000F0410446104605F02BF9606120F0004018
:102DC000A16A04F0F3FF01D200206061D4E9046538
:102DD0003146284605F01CF90146A061206805F03F
:102DE00019F8A0632946606805F014F80746606387
:102DF0000121304605F0E1F906462846E16804F075
:102E000037FE314605F004F9A16805F003F82063A8
:102E10003846E16905F0CAF8E06908D380F000405F
:102E2000616B05F0C3F803D2E06980F00040606395
:102E3000D4E90D0104F01CFE216B04F019FE216A97
:102E400004F016FE2062616A05F0B0F801D2606AF3
:102E50002062606A216A80F0004005F0A7F803D282
:102E6000606A80F0004020622069E0606069206153
:102E7000BDE8F08170B50DF1100C9CE8700080E8A1
:102E80000E000021C1600161C0E908148662416141
:102E9000C0E9061570BD000070B504460D4621F06E
:102EA0000040A16A04F082FF00D200256669C4E9EF
:102EB0000465B5F17F5F02DC2A48854211DC2A49AE
:102EC000E06A884203DD15F1FF4F06D209E0274989
:102ED000884202D9B5F5000F03DB294604F0C8FD8E
:102EE000E0623146284605F093F80646A06129467F
:102EF000206804F08FFFA063E16A606804F08AFF35
:102F0000054660633146A06804F084FF20632846CC
:102F1000E16905F04BF8E06908D380F00040616B8F
:102F200005F044F803D2E06980F000406063D4E922
:102F30000D0104F09DFD216B04F09AFD2062616A91
:102F400005F034F801D2606A2062606A216A80F07C
:102F5000004005F02BF803D2606A80F00040206248
:102F600070BD00006666663F00409C4500409CC501
:102F700080E80E007047000070B504460B464069BB
:102F800020611146184605F043F8606120F00040CA
:102F9000A16A04F00BFF01D2002060616569284935
:102FA00025F00040884211DB2649E06A884203DDB3
:102FB00015F1FF4F06D209E02349884202D9B5F541
:102FC000000F03DB294604F053FDE0622946206828
:102FD00004F020FFA063E16A606804F01BFF6063F7
:102FE0000546A169A06804F015FF20632846E16941
:102FF00004F0DCFFE06908D380F00040616B04F06E
:10300000D5FF03D2E06980F000406063D4E90D0190
:1030100004F02EFD216B04F02BFD2062616A04F0A8
:10302000C5FF01D2606A2062606A216A80F00040B8
:1030300004F0BCFF03D2606A80F00040206270BDE3
:10304000CDCC4C3E00007A4400007AC4044AA2F180
:103050000801081DFFF776FA012002F0C7FEF5E728
:103060002C0000201FB500F023F955485549CDE943
:10307000001000254FF07E57534B2A4602953946E3
:103080005248FFF7F7FE534EDFF84C81DFF84C91C2
:103090004E484F4C0096002342464946B438CDE98D
:1030A0000145FFF7E7FE494800960023424649469E
:1030B0007838CDE90145FFF7DDFE49480090CDE9BC
:1030C000010542483B46474A4FF07A513C38FFF7EA
:1030D000D1FE454CE56003F037FEDFF8F080DFF805
:1030E0000C91A8F13C0803906069D4E901BA80F022
:1030F00000473F480025016811F0FF4F09D1D9F87A
:10310000000010F0FF4F04D13A48006810F0FF4F64
:1031100006D03848D9F8002003682C48FFF728FF6C
:10312000524629462948FFF727FF2848006A04F03D
:1031300073FC05460E46384604F06EFC4FF0333201
:103140002D4B04F07FFB2A46334604F07BFB03F053
:103150004FFF0146294827F00042824203DD00204C
:10316000C8F8200003E019483C38FFF795FE2448D2
:10317000454651460068E0601448D8F82020783869
:10318000FFF715FE11485946B4382A6AFFF70FFEBB
:103190000E48B438016A3C30006AFFF7A1FC38469B
:1031A00000F088FB002000F085FB504600F082FB19
:1031B00000F08CFB032103A802F01FFE94E700003F
:1031C000333353400000A04100002041A4010020FF
:1031D00000409C4500401C460000C8420080B144AD
:1031E00000007041A69B443B140000200800002012
:1031F000040000200C0000203333F33F00005C4249
:103200001000002008B503F09FFDDFF88490214CEA
:10321000DFF884B0214E224FDFF888804FF0000A9B
:10322000CDF80000D9F80030586A02B22280DBF8ED
:103230000010496A0DB26580C3F824A0DBF80000D5
:10324000C0F824A0104604F085FD314604F084FC4B
:10325000154904F081FC394604F0DCFD414604F0D8
:103260007BFC6060284604F075FD314604F074FC78
:103270000E4904F071FC394604F0CCFD414604F0DF
:103280006BFCA0600321684602F0B7FDCAE70000AE
:10329000D004002014000020180500200000504237
:1032A00000007A44000040400000A0C10000A0419E
:1032B000012202490248FEF7B5BE000002000020CC
:1032C000A805002010B5502080F31188BFF34F8F60
:1032D000BFF36F8F03F03EFD18B104494FF08050EB
:1032E0000860002080F3118810BD000004ED00E0AC
:1032F00030B58FB028216846FDF781F814210AA85F
:10330000FDF77DF801210804CDE9001000240294A6
:1033100002250491CDE907504FF4E010099068466A
:10332000FDF774FF08B172B6FEE70F20CDE90A057C
:103330004FF48060CDE90C4002210AA80E94FDF7FD
:1033400069FE002801D072B6FEE70FB030BD7047AD
:103350000148FEF7DBBA0000F0050020F0B5026876
:10336000194B1A4C1A4D4FF08047984205D0B8427D
:1033700003D0A04201D0A84203D122F070064A68CF
:103380003243984205D0B84203D0A04201D0A842AF
:1033900003D122F44074CA6822434C6922F08002AF
:1033A000224302608A68C2620A688262984201D13E
:1033B00009690163012141610169C90703D00169FC
:1033C00021F001010161F0BD002C0140000400402A
:1033D0000008004010B501F01F030121046A994064
:1033E0008C430462016A9A401143016210BD10B51A
:1033F000846842EA032224F47F440A432243826021
:1034000010BD826822F070020A4342F00701816019
:103410007047000030B5036A026A22F001020262BE
:103420004268846924F073050C682C4323F002057C
:103430008B682B430A4DA8420BD123F00805CB68BB
:1034400022F440722B434D6923F0040315438A692B
:103450002A434260846149684163036230BD0000D1
:10346000002C014030B5026A036A23F010030362A6
:10347000436884690D6824F4E64444EA05248D68B1
:1034800022F0200242EA05120B4DA8420ED1CD686F
:1034900022F0800242EA05124D6923F4406343EAB8
:1034A00085038D6922F0400243EA8503436084610D
:1034B00049688163026230BD002C014030B5036A67
:1034C000026A22F4807202624268C46923F40073C3
:1034D00024F073050C682C438D6843EA05230C4DDA
:1034E000A8420ED1CD6823F4006343EA05234D6959
:1034F00022F4405242EA05128D6923F4806342EAC5
:1035000005124260C4614968C163036230BD0000B6
:10351000002C014030B5046A026A22F48052026233
:103520004268C3690D6823F4E64343EA05238D68C6
:1035300024F4005444EA0534064DA84204D14D69F0
:1035400022F4804242EA85124260C3614968016404
:10355000046230BD002C014010B5036A046A24F0F7
:1035600001040462846924F0F00444EA021423F0A4
:103570000A020A438461026210BD10B5036A046A3C
:1035800024F010040462846923F0A00324F470443E
:1035900044EA023243EA01118261016210BD10B5B2
:1035A000406A0021C185C184FEF766FB10BD016839
:1035B0000C3151E8002F22F4907241E80023002BD7
:1035C000F5D10168143151E8002F22F0010241E8E1
:1035D0000023002BF5D1016B012909D101680C31C1
:1035E00051E8002F22F0100241E80023002BF5D112
:1035F000202180F8421000210163704708B590F83F
:103600004210222901D0022008BD82684FF4805365
:103610009A4201D1016921B1816A9A421BD04AB113
:103620000AE00268816A5268C2F308020A80816A6D
:10363000891C08E0026972B10268526802F07F02D8
:103640000A70816A491C8162C18D491E0904090CF6
:10365000C18503D01BE002685268F1E70168CA68BF
:1036600022F02002CA600168CA6822F48072CA602F
:1036700001684A6922F001024A61202180F8421063
:1036800000214163026B012A03D0FEF7D9FC002020
:1036900008BD016301680C3151E8002F22F01002CF
:1036A00041E80023002BF5D101680A68D20602D553
:1036B0000A6849680091818DFEF7DDFAE7E70000AE
:1036C00070B5044600680169E26821F44051114375
:1036D00001612169A0680843616908432168CA68DB
:1036E00041F20C639A430243CA6020684169A269AF
:1036F00021F44071114341611E492068884202D182
:10370000FDF74EFD01E0FDF73BFD00EBC00101EBD5
:103710000012606864218000B2FBF0F3B3FBF1F3A8
:103720006FF018067343B2FBF0F5B2FBF0F605EB51
:103730008305322303EB0515B5FBF1F5B6FBF1F676
:1037400005F0F00505EB0615B2FBF0F6B2FBF0F064
:10375000B0FBF1F06FF01802504306EB800003EB72
:103760000010B0FBF1F0216800F00F0028448860E1
:1037700070BD00000038014081628285C285002151
:103780004164222180F84210016921B10168CA68B0
:1037900042F48072CA6001684A6942F001024A61DB
:1037A0000068C16841F02001C160002070472DE928
:1037B000F843984617460D460446089E24E0701CC0
:1037C00022D0FDF7A3F8A0EB0800B0421AD8CEB182
:1037D0002068C168490717D5802D15D0402D13D01A
:1037E0000168C94309070FD40168002540680090AB
:1037F0002046FFF7DCFE0820606484F8405001207A
:10380000BDE8F8830320FBE72068006835EA000084
:1038100004D00020B842D2D00020F1E70120F9E71F
:103820000148FEF72BBA0000600500200148FEF7B2
:1038300025BA0000A8050020FEE7000030B51C49AD
:10384000002203244B78052B0ED2DFE803F0030798
:10385000102E0E00A52807D1012004E0032804D86B
:103860000A70C8700220487030BD4A7030BD104ADE
:10387000CB78127833B1012B07D0022B08D0032B61
:1038800009D00BE00A4B1B1D07E0094B083304E08D
:10389000074B0C3301E0064B10339854521CD0B246
:1038A00008700428E2D34C7030BD5A28DDD130BDF9
:1038B0000000002008B54FF0FF3300900422694655
:1038C0000148FEF7CDFB08BDA805002008B505A0FE
:1038D0004FF0FF3300680090042269460248FEF76B
:1038E000BFFB08BD0000807FA8050020490050EA0A
:1038F000C12018BF04204A0D18BF40F0010040F25B
:10390000FF72B2EB515F08BF40F00200012808BF10
:10391000052070470907090E002804DB00F1E020AC
:1039200080F80014704700F00F0000F1E02080F8EC
:10393000141D70472DE9F0414F1E00EBC7010446EE
:10394000D1E9000115461E4637F006020DD02A4681
:10395000334603F087FD7F1E04EBC703D3E9002342
:1039600003F078FB37F00602F1D1022F25D0042FA7
:1039700013D0062F18BFBDE8F0812A46334603F066
:1039800071FDD4E90A2303F065FB2A46334603F0B0
:1039900069FDD4E9082303F05DFB2A46334603F0B2
:1039A00061FDD4E9062303F055FB2A46334603F0B4
:1039B00059FDD4E9042303F04DFB2A46334603F0B6
:1039C00051FDD4E9022303F045FB2A46334603F0B8
:1039D00049FDD4E90023BDE8F04103F03BBB0122DF
:1039E00004F0BDBB03F036BB00221346104611465F
:1039F00003F0E0BB024A0020110704F0B0BB000056
:103A000001FDFFFF2DE9FE4F07460E4600256846E3
:103A100000F0DCFF00246FF00F0AE8464FF00109C8
:103A200057F8240056F82410401A00D5404204F0FC
:103A300091F9514604F0C1FB58F8241011F0FF4FE2
:103A40000BD004F089F84FF07E5104F0E1FA0A49F6
:103A500020F00040884205DC07E008490844084996
:103A6000884202D309FA04F00543641C032CD7DB17
:103A70002846BDE8FE8F0000295C0F3E666666C1E1
:103A80009A99D9002DE9F04D8D4F21F0004A86B06A
:103A900005460C46BA452ADBAAEB070028430AD0A4
:103AA0008848824501DC1AD1CDB106B02846BDE870
:103AB000F04DFFF794BF844A844B284603F0D2FCB4
:103AC00007460E46824A834B2846214603F0CAFC2D
:103AD00006B03A463346BDE8F04D03F0BBBA0120CC
:103AE000FCF733FD06B0BDE8F04DFFF77DBF7A4827
:103AF000824542DABAF1795F0BDA2846FFF7F6FE23
:103B0000042808BFFFF776FF284606B02146BDE827
:103B1000F08D2A460B46104603F0A4FC834602466D
:103B20006E480E460B4606217844FFF703FF5A46BF
:103B3000334603F097FC804669488A465A46334626
:103B400004217844FFF7F6FE5A46334603F08AFC18
:103B500000223B4603F07EFA02460B4640465146A1
:103B600003F028FB2A46234603F07CFC06B02A46D5
:103B70002346BDE8F04D03F06DBA284624F000411D
:103B800000223D463B4603F06BFD4FF0FF3204F050
:103B9000E6FA0646024653480F460B46062178448D
:103BA000FFF7C8FE32463B4603F05CFCCDE900015E
:103BB0004D4832463B4604217844FFF7BBFE32466F
:103BC0003B4603F04FFC00222B4603F043FA8346AA
:103BD00002913046394602F077FC804643480D4654
:103BE000504517DCDDE900015A46029B03F0E2FA7A
:103BF00042462B4603F036FC42462B4603F02AFA97
:103C0000012204F0ACFA304A304B03F01BFE304A7C
:103C1000304B4CE04FF0000A52460B46404603F052
:103C200019FACDE9031052462B461046194603F007
:103C300019FC32463B4603F013FDDDE9033203F085
:103C4000B9FA06460F46DDE900015A46029B03F029
:103C5000B1FA8346009101223046394604F07FFADA
:103C6000194A1A4B03F0FCFC06460F460122404657
:103C7000294604F074FA5A46009B03F0F3FB3246DF
:103C80003B4603F0DFFD06460F460122504629461B
:103C900004F065FA0E4DDFF858802A46434603F0DB
:103CA000DFFC32463B4603F0DBFC2A46434603F08A
:103CB000D7FC002CD8BF81F0004106B0BDE8F08DE4
:103CC0000000F03F0000F07F075C143326A6913C13
:103CD000182D4454FB21F93F0000E03FD45300006D
:103CE000EA5300005E530000745300003333EF3F8B
:103CF000FB21E93F2DE9F84F04460D4621F0004035
:103D000000917349814211DC7249884201DC06D17D
:103D10002CB120462946BDE8F84FFFF760BE6E483B
:103D2000002DCCBF6D496E49BDE8F88F6D498142C9
:103D300011DD6D498142D8BF4FF0FF366DDD204661
:103D40002946FFF7D3FD042808BFFFF753FE20469E
:103D50002946BDE8F88F6549654F25F00045814249
:103D600033DD6449814219DD002632464FF080433D
:103D70002046294603F06EF980468A4601222046F5
:103D8000294604F0ECF900223B4603F05BFD424675
:103D9000534603F00FFA04460D463EE0012600228A
:103DA000BA463B462046294603F054F980460F4662
:103DB000002253462046294603F044FD42463B4636
:103DC00003F0F8F904460D4627E04B4981421BDD1C
:103DD000DFF828A10226002253462046294603F098
:103DE00041FB00223B4603F035F980460F46002296
:103DF00053462046294603F025FD42463B4603F044
:103E0000D9F904460D4608E0032622462B46002039
:103E10003B4903F0CFF904460D4622462B46104697
:103E2000194603F01FFB8B46824602460B4603F001
:103E300019FB07460246334888460B46062178445C
:103E4000FFF778FD52465B4603F00CFB82462E4896
:103E50008B463A46434605217844FFF76BFD3A46C8
:103E6000434603F0FFFA02460B46002E50465946E1
:103E70000CDA03F0EFF822462B4603F0F3FA01B018
:103E800022462B46BDE8F04F03F0EABB03F0E2F810
:103E900022462B4603F0E6FA1C4A7A4402EBC6039C
:103EA000D3E9002303F0CEFC22462B4603F0CAFCE4
:103EB000174A7A4402EBC603D3E9002303F0D0FB90
:103EC000009A002AB8BF81F00041BDE8F88F0000D9
:103ED000000010440000F07F182D4454FB21F93FEE
:103EE000FB21F9BF0000DC3F0000203E0000F33F53
:103EF0000000F03F0000E63F008003400000F83F74
:103F00000000F0BF7651000034510000D250000094
:103F10009A5000002DE9F04D9446CCF1000423F0B6
:103F200000464CEA0404524F46EAD4749A46884646
:103F300021F00042BC4206D8454240EA050442EA6C
:103F4000D474BC4204D9BDE8F04D6246FFF74ABDC7
:103F5000AAF14055A5F17F6555EA0C040BD0022467
:103F600004EAAA74434DDFF810E144EAD87452EA37
:103F7000000B04D00CE0BDE8F04DFFF7BBBE002CF9
:103F800014BF012CBDE8F08D022C30D0032C32D0B0
:103F900056EA0C0B0AD0BE4220D1BA4209D126F013
:103FA000804622F080423346114617E000291ADB92
:103FB00025E0DFF8C8B0FB44002C04BFDBE90001BA
:103FC000BDE8F08D012C02BFDBE9000181F000416A
:103FD000BDE8F08D022C0AD0032C0CD0BA4212D1CD
:103FE000B8F1000F0BDA23482549BDE8F08D2846CB
:103FF0002449BDE8F08D28467146BDE8F08D1D4886
:104000002149BDE8F08D921B12153C2AC4BF194806
:104010001D490EDCBAF1000FBEBF12F13C0F0020AB
:10402000014606DB624603F0C5F821F00041FFF7C8
:1040300061FE002C08BFBDE8F08D012C04BF81F0AB
:104040000041BDE8F08D114A114B022C07D003F05E
:10405000F9FB2A46BDE8F04D0A4B03F0F3BB03F031
:10406000F1FB2A46BDE8F04D064B03F0F9BA00001B
:104070000000F07F182D4454FB2109C02E50000091
:10408000FB21F9BFFB210940FB21F93F075C1433F9
:1040900026A6A13C08B560B120208DF8000028209C
:1040A0008DF8010030208DF8020038208DF80300D3
:1040B00004E0A32204216846FCF799F96A4604212A
:1040C00040F69E2001F058FE01F068FA08BD00009D
:1040D0003EB5044602208DF80000CA208DF801008C
:1040E000E3208DF8020009208DF803006A460421C0
:1040F000682001F041FEA3208DF80000610609D57B
:10410000C0218DF80110C8218DF80210C2218DF850
:10411000031005E08DF801008DF802008DF8030012
:1041200014F4C07F09D0C4218DF80410CC218DF87F
:104130000510C6218DF8061005E08DF804008DF8F5
:1041400005008DF806008DF808008DF807008DF841
:1041500009006A460A2140F6A72001F00DFEA007DB
:104160004FF0D80503D020208DF8000001E08DF835
:1041700000506A46012140F6B62001F0FDFDA00680
:1041800001D5012000E0002000F08EF814F4C07F7B
:104190001ED0E0050AD5B2208DF800008B208DF8E6
:1041A0000100B6208DF802009B2009E0B0208DF8B8
:1041B000000080208DF80100B4208DF802009020CE
:1041C0008DF803006A46042140F6A22001F0D4FDD8
:1041D000E1074FF40B6022D0F8218DF800106A46F9
:1041E000012101F0C9FDFA21072000F03BFB072067
:1041F00000F006FB012000F023FB642000F0C6FB6A
:104200004FF4FA7000F0D2FBC821254800F0C0FA44
:10421000282000F0D5FA0A2000F0E2FA05E08DF837
:1042200000506A46012101F0A7FDA00703D5D9205F
:104230008DF8000001E08DF800506A46012140F23F
:104240003D7001F099FD600701D5012000E00020DC
:1042500000F048F8E00601D5012000E00020FFF75B
:1042600019FF104D44F00800688101F097F9002013
:10427000A873600601D50620A87314F4C07F02D08D
:10428000A87B801DA87314F0140F02D0A87B1030F7
:10429000A873A00702D0A87B001DA87300203EBD14
:1042A00009E3CA02380600200EB54FF4976310B137
:1042B00006A107C901E008A207CA8DE807006A46FF
:1042C0000921184601F058FD0EBD0000B8AAB38DB3
:1042D000B4980D355D000000B8AAAAAAB088C3C57D
:1042E000C700000008B560B1C0208DF80000C220F2
:1042F0008DF80100C4208DF80200C6208DF803005F
:1043000004E08B2204216846FCF771F86A46042118
:1043100040F6982001F030FD01F040F908BD0000A2
:10432000C8234FF48062024940F6F63000F0DABF4D
:10433000E08200082DE9FF4F89B01746DDE91652EB
:1043400000244D4E884681462C80A246B07B6946AB
:1043500001F08AF84FF0FF3B18B158460DB0BDE8A8
:10436000F08F708910F0140F3CD0009909BA21F039
:10437000FF039DF803100B433B6001991B1409BA1E
:1043800021F0FF029DF807105B430A437A6002990F
:104390009DF80B4009BA21F0FF012143B960039C4D
:1043A000091424BA24F0FF0C9DF80F4012144CEAB3
:1043B000040CC7F80CC04FEA2C47494302FB0232F9
:1043C00007FB071111441024A1F17061B1F1007FC6
:1043D00004D901F0E3F8A5F800A0BEE7298841F46C
:1043E000807129804206694611D50A19A41D1388D7
:1043F0005BBAA8F8003053885BBAA8F802309288FC
:1044000052BAA8F804202A8842F008022A8010F440
:10441000C07F11D00A19A41D13885BBAA9F8003017
:1044200053885BBAA9F80230928852BAA9F80420DE
:104430002A8842F070022A80800716D00C44E07867
:1044400000F0C00500F03F016078C00706D0C80842
:1044500001F007013268491C02B1904760780007FB
:1044600003D5716809B1A8098847FCF74FFA0C9980
:104470000860002072E70000380600202DE9FF41A7
:10448000044603A800F0FEFDBDF80C00410CC30378
:1044900000BF2F48028902F00300550754F820009E
:1044A00000D54042C2F3C105960654F8255000D508
:1044B0006D42C2F38116D20554F8264000D56442FD
:1044C000A0FB0367C21702FB037200FB01208200FE
:1044D00042EA9670A5FB0367EA1702FB037205FB2D
:1044E0000122950045EA9672A4FB0367E51705FBD8
:1044F000037304FB01318B0043EA9671030E8DF8C0
:104500000030030C8DF80130030A8DF802308DF86D
:104510000300100E8DF80400100C8DF80500100A31
:104520008DF80600080E8DF80800080C8DF80900BB
:10453000080A8DF80A008DF807208DF80B106A46DE
:104540000C214FF4257001F017FC04B0BDE8F08198
:104550003806002030B5044613A285B007CA8DE89E
:1045600007004FF0FF35C82C16D8C820B0FBF4F177
:10457000491E080A8DF80C008DF80D1003AA0221BF
:1045800040F2162001F0F8FB30B96A460C2140F6E3
:10459000C12001F0F1FB10B1284605B030BD05483F
:1045A00084810020F9E70000FEF2ABC4AAF1DFDF4E
:1045B000BBAFDFDF38060020F8B53049098901F0CC
:1045C000030250F822404A0700D56442C1F3C102F9
:1045D0008B0650F8222000D55242C1F3811350F8C7
:1045E0002330C80500D55B42254984FB0140850086
:1045F00045EA947082FB0142A40F44EA820483FBE3
:104600000121950F45EA8105010E8DF80010010C7E
:104610008DF80110010A8DF802108DF803006A462A
:1046200004214FF4747001F0A7FB4FF0FF3688B9F6
:10463000200E8DF80000200C8DF80100200A8DF866
:1046400002008DF803406A4604214FF4757001F0B2
:1046500093FB08B13046F8BD280E8DF80000280CF9
:104660008DF80100280A8DF802008DF803506A4683
:1046700004214FF4767001F07FFBF8BD380600206E
:1046800009E3CA022DE9FF4104463CA004F00303FC
:10469000006802903AA0006803903AA006683AA029
:1046A000056802A8C15C8DF80010C4F3C101425C2A
:1046B0008DF80120C4F38112805C8DF8020003A8FC
:1046C000C35C8DF80430415C8DF80510805C8DF87A
:1046D00006006A46032140F2264001F04DFB4FF0F0
:1046E000FF37E0BB01AA032140F22A4001F044FB5E
:1046F000A8BBCDE9006560070BD59DF8000040F030
:1047000001008DF800009DF8040040F001008DF8D4
:104710000400A0060BD59DF8010040F001008DF8C3
:1047200001009DF8050040F001008DF80500E0054E
:104730000BD59DF8020040F001008DF802009DF8B5
:10474000060040F001008DF806006A4603214FF490
:10475000886001F011FB10B901AA032100E004E018
:1047600040F2314001F008FB18B1384604B0BDE812
:10477000F081064804810020F8E700004CCD6C0071
:104780000CC92C00365676002646660038060020F6
:104790004FF47A7290FBF2F008B54843010E8DF8A1
:1047A0000010010C8DF80110010A8DF802108DF82F
:1047B00003006A4604214FF4AE7001F0DDFA08BD33
:1047C0000521B0FBF1F008B5010A8DF800108DF855
:1047D00001006A4602214FF4AD7001F0CDFA08BD28
:1047E0000521B0FBF1F008B5010A8DF800108DF835
:1047F00001006A4602214FF4AC7001F0BDFA08BD19
:1048000008B500218DF80010C10702D030218DF8C5
:104810000010810705D59DF8001041F00C018DF8BE
:104820000010400705D59DF8000040F003008DF80A
:1048300000006A4601214FF4A47001F09DFA08BD02
:1048400008B560B1042800D90420401E8DF800008E
:104850006A46012140F24F1001F08EFA08BD012096
:10486000F3E700002DE9FC41054640074FF0FF3615
:104870007CD0B1F5C86F79D8084603F083FA3E4979
:1048800003F06AF9074601A800F0DEFB9DF804007A
:10489000022806D004280DD008282ED0102865D173
:1048A00034E00E21384603F088FC03F033FA84B27A
:1048B000324907E00D21384603F07FFC03F02AFA65
:1048C0002F4984B2384603F0A5FA03F023FA210AEF
:1048D0008DF8001080B28DF80140010A8DF80210A9
:1048E0008DF80300E8076C4620D0224602214FF4E1
:1048F000EA7001F041FAC8BB11E00C21384603F020
:104900005CFC03F007FA84B21E49DBE70B21384652
:1049100003F053FC03F0FEF984B21B49D2E7A21C5A
:1049200002214FF4927001F027FAF8B9A8070DD5CB
:104930006A4602214FF4EC7001F01EFAB0B9A21CD5
:1049400002214FF4947001F017FA78B9680710D576
:104950006A4602214FF4EE7001F00EFA30B9A21C43
:1049600002214FF4967001F007FA10B13046BDE80D
:10497000FC810020FBE700000000484300004046A7
:104980000000C045000040450000C0440521B0FBC8
:10499000F1F008B5010A8DF800108DF801006A46A3
:1049A00002214FF4EF7001F0E7F908BD0521B0FBDB
:1049B000F1F008B5010A8DF800108DF801006A4683
:1049C00002214FF4ED7001F0D7F908BD2DE9F04355
:1049D00085B006464FF48072042104A88DE80700D4
:1049E000264801230D22406801782548FCF758F835
:1049F00018B1072005B0BDE8F0839DF810101C2009
:104A000000EAD1029DF81310DFF87890C1F301138A
:104A10001A438DF80C209DF81120C1F3810300EAA0
:104A2000D2021A438DF80D209DF8122001F00301E7
:104A300000EAD20008430024134F8DF80E00A04670
:104A400003AD285D10B146F824900AE046F82480B2
:104A50000DE000BF56F82400394603F0DBF946F8B4
:104A60002400285D401E10F0FF002855F2D1641C80
:104A7000E4B2032CE5D30020BCE700004000002096
:104A8000340400207B14AE3E1D5A843F2DE9F04FC4
:104A900087B04FF0010A0C4605468DF80CA04FF088
:104AA00000080DF10C098DF80D804FF4807602217D
:104AB0004846DFF8C4B38DE84300DBF80010DBF8AC
:104AC000040017464A7D01785346EC48FCF716F976
:104AD00000287DD1C820FBF711FE00208DF80C00C6
:104AE000B046CDF80090CDE901A8DBF800005E46A5
:104AF0000123427CDBF804000178E048FCF7FEF873
:104B00000028E6D1C346D046CA46CDE900A8CDF874
:104B100008B031687068B1464A7901780123D748F6
:104B2000FCF7ECF80028D4D103A9CDE90018CDF8A2
:104B300008B0D9F80010D9F804005E464A7D017823
:104B4000CA460123CD48FCF7D9F80028C1D1C14697
:104B50000DF10C08B34642468DE8040ADAF800006D
:104B600056460123827EDAF804000178C348FCF738
:104B7000C5F80028ADD1CA46C1468DE8000E3068A0
:104B80000123027970680178BC48FCF7B7F8002867
:104B90009FD10C208DF80C00CDF80090CDE901AB31
:104BA0003068D8460123027970680178B348FCF771
:104BB000A5F800288DD10F20FBF7A0FDB06A407A40
:104BC0008DF80C00CDF80090CDE901A8306800E028
:104BD00097E08278706801230178A848FCF78EF886
:104BE00000288ED1B06A0123007A8DF80C00CDF830
:104BF0000090CDE901A830684278706801789F483C
:104C0000FCF77CF800287CD1B06A807A0FB140F0C4
:104C1000E0008DF80C00CDF80090CDE901A83068D7
:104C200001238279706801789448FCF767F80028BE
:104C300067D127B1B06AC07A40F0E00000E01820E8
:104C40008DF80C00CDF80090CDE901A831687068AE
:104C5000CB46CA79017801238848FCF74FF8002831
:104C600071D117B1C820FBF749FD40208DF80C0029
:104C70004746CDF800B0CDE901A73068D146D84607
:104C800002797068012301787C48FCF737F8C0BBD3
:104C900078208DF80C00CDF80080CDE901973068C0
:104CA00001234279706801787448FCF727F840BB0B
:104CB0003220FBF723FD4FF0000ABB468DF80CA015
:104CC00047468DE8800A3068012342797068017890
:104CD0006A48FCF713F8A0B9D94602200097CDE93D
:104CE000010931687068BB460A7B0178B046012330
:104CF0006248FBF7D5FE20B9BDF80C000C2140BA84
:104D000000E020E0B0FBF1F0C5F808A0C5F804A071
:104D1000C5F800A0C4F808A0C4F804A0C6B20027D3
:104D2000C4F800A040E00C21CDF800B0CDE9011995
:104D3000D8F80010D8F8040001234A7B01784F48C6
:104D4000FBF7AEFE20B14FF0FF3007B0BDE8F08FAB
:104D5000BDF80C00236840BA01B2BDF80E0019443A
:104D600040BA02B2BDF810002160616840BA114437
:104D70006160A16800B20844A060BDF812002B6811
:104D800040BA02B2BDF81400BDF816101A442A60E9
:104D900040BA6A6800B21044686049BAA86809B2AB
:104DA00008447F1CFFB2A860B742BCD328688322A6
:104DB000C117090441EA104100040023FBF750FA2F
:104DC00032460023FBF74CFA286068688322C1173B
:104DD000090441EA104100040023FBF741FA32467E
:104DE0000023FBF73DFA6860A8688322C117090415
:104DF00041EA104100040023FBF732FA3246002357
:104E0000FBF72EFAA86020684FF40065C11709046B
:104E100041EA104100042A460023FBF721FA3246FA
:104E20000023FBF71DFA206060682A46C1170904B9
:104E300041EA104100040023FBF712FA3246002336
:104E4000FBF70EFA6060A0682A46C117090441EA20
:104E5000104100040023FBF703FA32460023FBF75E
:104E6000FFF9A060002802DDA0F5803001E000F528
:104E70008030A060002068E740000020340400205B
:104E80002DE9FF5F8846814603AE4FF48070032111
:104E90000096CDE901102D480025012340680D2220
:104EA00001782B48FBF7FCFD18B1072004B0BDE8E2
:104EB000F09F9DF80C00002400F01F008DF80C00FE
:104EC0009DF80D006FF00F0B00F01F008DF80D0026
:104ED0009DF80E004FF0010A00F01F008DF80E0043
:104EE00059F8241058F82400081A00D5404202F05E
:104EF00031FF594603F061F90746305DC0B11548EE
:104F000002E0154902F086FF315D491E11F0FF01F4
:104F10003155F6D10146384602F01EFE4FF07E5163
:104F200003F076F80D4920F00040884205DC07E0E8
:104F30000B483844B0F1D97F02D90AFA04F005438E
:104F4000641C032CCCDB2846B0E7000040000020A6
:104F5000340400200000C84154E3853F295C0F3E23
:104F60000000E0BE90F90010002902DD4FF00000C3
:104F7000704702DA4FF00400704790F901100029E1
:104F800002DD4FF00100704702DA4FF00500704774
:104F900090F90200002802DD4FF00200704702DAAB
:104FA0004FF0060070474FF007007047FBF776FFA1
:104FB000FEF79EF9FDF712FCFDF796FCFDF7E6FC07
:104FC000FDF71CFDFDF76EFDFDF76EFCFDF74EFDD8
:104FD000FDF764FEFDF784FB0028FBD1FDF7CEFB57
:104FE00000F012FFFEE701460020842900D0C81C13
:104FF000704700002DE9F041124C20F0010100251E
:1050000094F8240010B10020BDE8F081A07A4FF0A0
:10501000FF3668B10840277C2074884200D03546AE
:1050200041B1012001F012FA00F0B8FA38B127744A
:105030003046E9E7207D00B1012001F007FA28465B
:10504000E2E70000400000200D494A7A42B1012AFF
:1050500008D0022A0FD0032A0FD04FF0FF3070473C
:10506000022200E004220270C97C11B11106C90DB0
:105070000170002070470822F5E71022F3E70000D6
:10508000400000200F494A7A42B1012A09D0022A81
:1050900011D0032A12D04FF0FF3070474FF48042F6
:1050A00001E041F69C720280C97C11B1C2F34E014D
:1050B0000180002070474FF48052F4E74FF4006203
:1050C000F1E70000400000200B49097A39B10129BD
:1050D00007D002290AD003290BD0002103E0FA21CE
:1050E00001E04FF4FA710180002070474FF47A71AB
:1050F000F9E74FF4FA61F6E7400000200A49097A1F
:1051000041B1012908D002290AD003290AD04FF061
:10511000FF307047054900E00549016000207047F5
:105120000449FAE70449F8E740000020000003437F
:105130000000834233330342333383410C49C97A3D
:10514000072913D2DFE801F01204060A0C0E100042
:10515000BC2100E062210180002070472A21FAE78B
:105160001421F8E70A21F6E70521F4E70021F2E728
:1051700040000020054991F8242012B14FF0FF3083
:105180007047C9890180002070470000400000205E
:105190002DE9F04786B080208DF80C0047000DF116
:1051A0000C09012648464D4C8DE8C1002068334665
:1051B000427D606801784A48FBF7A0FD4FF0FF3A56
:1051C000002838D16420FBF799FACDE90096002534
:1051D000B8468DF80C50CDF8088020684F46012362
:1051E000427D606801783E48FBF788FD00286CD15D
:1051F0000621CDE90071CDF8088020680123427EA8
:10520000606801783648FBF74BFC00285DD19DF8BB
:1052100011009DF80F10C007400F01F0010140EA96
:1052200041009DF80D1001F00101084304D0012850
:1052300035D0022814D048E0CDE90076CDF80880BA
:1052400020680123C278606801782548FBF728FCB4
:10525000D8BB9DF80C0010F00F0036D004281ED0EB
:10526000E574FF2004F80A0F4FF6FF7104F8020CF2
:1052700004F8010C6070A180A0712072A6702676DF
:105280006576E572A572E56025616561A576E576CE
:10529000A5834FF4FA6000F0FBFBB0B901E0E674BF
:1052A000DFE7022000F0D2FA78B92A2000F06AFC89
:1052B00058B9322000F0A6FC38B90020FFF79AFE5A
:1052C00018B9002000F0FEFA18B1504606B0BDE84B
:1052D000F087002000F0E2FC0020F7E7400000200B
:1052E000340400202DE9FF4FDFF8A080064689B086
:1052F00098F8250015460F464FF0FF39E0BBDFB3A5
:10530000002420E0301B102800DD102080B28346EE
:105310003A1901469246204600F02EFD60BB03AAD2
:105320005946204600F000F930BB50465A4603A9C2
:10533000FAF7BAFF20B16FF001000DB0BDE8F08FB1
:1053400004EB0B0084B2B442DCD3280A8DF81C00B5
:105350008DF81D504FF48072022107A88DE80700D8
:10536000D8F8000044460123427FD8F804000178B1
:105370000748FBF7C3FC08B14846DEE7012084F884
:1053800025000C98E0840020D7E7000040000020B2
:10539000340400202DE9FF5F0546282851D8002657
:1053A0002F4C0DF10C094FF007084FF4807A0227BB
:1053B0007DB1012000F0ACFB20208DF80C004FF0F7
:1053C000010B012D1BD0052D1CD88DF80DB005202B
:1053D00022E0002000F09CFBCDE900978DF80C60E6
:1053E0008DF80D80CDF808A020680123427D60680B
:1053F00001781C48FBF782FC18BB26752EE08DF85F
:105400000D60E4E7142D03D88DF80D700A2003E039
:1054100003208DF80D00142000F0B4FB9DF80D1052
:10542000CDE9009708EB81108DF80D00CDF808A0AC
:1054300020680123427D606801780A48FBF75EFC22
:1054400020B14FF0FF3004B0BDE8F09F0820A072FB
:10545000267384F814B00020FFF7CCFD0020F2E79B
:1054600040000020340400202DE9FF5F2C4C06464C
:10547000904694F824008B464FF0FF3AC0B3A07AD0
:10548000B0B30DF10C094FF48077022148468DE846
:10549000830020680123027B606801782148FBF7C4
:1054A000FFFA28BBBDF80C0045BAB54203D2002173
:1054B00088F800102AE060684188B5EB510F18D9D0
:1054C0000122CDF80090CDE9012721680123CA7C93
:1054D00001781448FBF7E4FA50B99DF80C00C006B7
:1054E00007D500F05BF86FF0010004B0BDE8F09F55
:1054F0000CE0CDF800B0CDE9016720680123427BC4
:10550000606801780748FBF7CBFA08B15046ECE732
:10551000B5FBF6F0401E88F800000020E5E700002B
:1055200040000020340400202DE9FF4115000E4604
:105530004FF0FF3729D0174CA17A31B3010A8DF80B
:105540000C10C0B28DF80D0081196068428991423B
:105550001BD8022203ABCDE900324FF48078CDF89E
:10556000088021680123CA7E01780B48FBF7C6FB3F
:1055700058B98DE8600120680123027E60680178D7
:105580000548FBF78DFA002800D0384604B0BDE886
:10559000F081000040000020340400202DE9FF4786
:1055A0006C4C4FF0FF3AA07A00287CD000270DF118
:1055B0000C088DF80C704FF48076012540468DE87C
:1055C000610020682B46427C606801786248FBF7E6
:1055D00095FB002867D1CDF80080CDE90156216800
:1055E000606801234A7901785B48FBF787FB002854
:1055F00059D1CDF80080CDE90156216860680123BA
:105600000A7901785448FBF779FB00284BD194F8CC
:10561000240088B30C208DF80C00CDF80080CDE973
:105620000156206801230279606801784A48FBF737
:1056300065FB002837D13220FBF760F8C0208DF8D9
:105640000C00A07AC00702D0E0208DF80C00CDF845
:105650000080CDE901562068C146012302796068C7
:1056600001783D48FBF74AFB00286ED1607C20B1F1
:1056700002208DF80C0002E019E08DF80C70CDE9E5
:105680000095B046CDF8088020684E460123427C44
:10569000606801783048FBF731FB20B98DF80C7059
:1056A000CDF8088000E050E0CDE9006543E004203B
:1056B0008DF80C00CDF80080CDE90156206801235B
:1056C0000279606801782448FBF718FBE8BBA07CEE
:1056D000A0B9A07AC00711D05FF060008DF80C006F
:1056E000CDF80080CDE90156206801230279606879
:1056F00001781948FBF702FB38BB01E04020EDE7D9
:105700003220FAF7FBFF607C10B18DF80C5001E0FD
:105710008DF80C70CDF80080CDE90156206801238A
:10572000427C606801780C48FBF7E8FA68B90948E0
:1057300010308DE8610020680123427960680178AB
:105740000548FBF7DBFA002800D0504604B0BDE85E
:10575000F087000040000020340400202DE9F047CD
:10576000394C82468AB094F824000F4620B10020BC
:1057700000F044F9012600E0002607A8FFF7A4FC8A
:1057800006A8FFF761FC09A8FFF7D8FC08A8FFF7F7
:10579000F1FC94F80A9094F8108000250022394614
:1057A0005046FFF773F910B16D1C022DF6DB022D88
:1057B0001AD00025012203A96846FFF767F910B146
:1057C0006D1C022DF6DB022D0ED003A93846FEF724
:1057D00019F9C7B269465046FFF752FB10F0FF0FA8
:1057E0004FF0000502D002E0002503E001250FB9CB
:1057F00045F00205FF2020726072E0724FF6FF71E3
:10580000E181A072207401202073BDF81C0000F01B
:105810003FF99DF8180000F019F8BDF8240000F0D9
:10582000B1F9BDF8200000F0EDF9484600F036FA75
:105830004046FFF7DFFB16B1012000F0DFF80AB0A9
:105840002846BDE8F0870000400000207FB51B4CD3
:105850004FF0FF35A17A51B3022806D0042806D0B4
:1058600008280ED0102822D10DE0002000E00820EA
:105870008DF80C00607A9DF80C10B0EBD10F04D0BD
:1058800006E01020F4E71820F2E7002004B070BD15
:105890004FF48072012103A88DE8070020680123DE
:1058A000C279606801780648FBF728FA08B12846F3
:1058B000ECE79DF80C00C0086072E6E740000020AD
:1058C000340400202DE9FF474A4C0746A07CB8422B
:1058D00003D1002004B0BDE8F08746484FF0FF3AFE
:1058E0004FF48075D0E900104FF0010803AECFB33C
:1058F0000096CDE901850A79017801233E48FBF73E
:10590000CFF8002871D19DF80C00CDE9006820F097
:105910002000A9468DF80C00CDF808902068454677
:1059200001230279606801783348FBF7E7F9E8BBA7
:105930000320FAF7E3FE02208DF80C0094F8220011
:1059400010B182208DF80C0094F8230028B19DF846
:105950000C0040F030008DF80C00CDE90065CDF86A
:10596000089039E0FFE7CDE9006802950A790178EF
:1059700001232148FBF794F8C0B9A07AC0079DF82D
:105980000C0002D040F0200001E020F02000A946E9
:105990008DF80C0035468DE820032068012302793C
:1059A000606801781448FBF7A9F900E01DE0E0B950
:1059B0000320FAF7A3FE94F8220000B180208DF8AE
:1059C0000C0094F8230028B19DF80C0040F0300042
:1059D0008DF80C008DE8200320680123C27D6068EB
:1059E00001780548FBF78AF908B1504672E7A774B9
:1059F0006FE7000040000020340400202DE9FF4143
:105A0000214C94F82410814224D000264FF4807752
:105A1000012530B394F8250000B3002000F016FDF6
:105A20000020FFF74FFFE08C00F0ECF88DF80C60E1
:105A300003A88DE8A10060680123232201781348A0
:105A4000FBF75CF984F82450012000F0FFFC00BF54
:105A5000FFF7A4FD002004B0BDE8F0814FF0FF3057
:105A6000F9E7002000F0F2FC207C8DF80C0003A880
:105A70008DE8A10060680123232201780348FBF729
:105A80003DF984F82460E3E740000020340400205E
:105A90007FB51D4C4FF0FF35A17A69B3FA2809D0C4
:105AA000B0F5FA7F08D0B0F57A7F0FD0B0F5FA6F75
:105AB00022D10DE0002000E008208DF80C00207AB3
:105AC0009DF80C10B0EBD10F04D006E01020F4E7E5
:105AD0001820F2E7002004B070BD4FF4807201215D
